{
	"contracts/productTracker.sol": {
		"SimpleProductTracker": {
			"abi": [
				{
					"inputs": [],
					"stateMutability": "nonpayable",
					"type": "constructor"
				},
				{
					"anonymous": false,
					"inputs": [
						{
							"indexed": true,
							"internalType": "uint256",
							"name": "id",
							"type": "uint256"
						},
						{
							"indexed": true,
							"internalType": "address",
							"name": "previousOwner",
							"type": "address"
						},
						{
							"indexed": true,
							"internalType": "address",
							"name": "newOwner",
							"type": "address"
						}
					],
					"name": "OwnershipTransferred",
					"type": "event"
				},
				{
					"inputs": [],
					"name": "contractOwner",
					"outputs": [
						{
							"internalType": "address",
							"name": "",
							"type": "address"
						}
					],
					"stateMutability": "view",
					"type": "function"
				},
				{
					"inputs": [
						{
							"internalType": "uint256",
							"name": "_id",
							"type": "uint256"
						},
						{
							"internalType": "string",
							"name": "_name",
							"type": "string"
						}
					],
					"name": "createProduct",
					"outputs": [],
					"stateMutability": "nonpayable",
					"type": "function"
				},
				{
					"inputs": [
						{
							"internalType": "uint256",
							"name": "_productId",
							"type": "uint256"
						}
					],
					"name": "getProductDetails",
					"outputs": [
						{
							"internalType": "uint256",
							"name": "",
							"type": "uint256"
						},
						{
							"internalType": "string",
							"name": "",
							"type": "string"
						},
						{
							"internalType": "address",
							"name": "",
							"type": "address"
						},
						{
							"internalType": "enum SimpleProductTracker.ProductStatus",
							"name": "",
							"type": "uint8"
						}
					],
					"stateMutability": "view",
					"type": "function"
				},
				{
					"inputs": [
						{
							"internalType": "uint256",
							"name": "",
							"type": "uint256"
						}
					],
					"name": "productOwners",
					"outputs": [
						{
							"internalType": "address",
							"name": "",
							"type": "address"
						}
					],
					"stateMutability": "view",
					"type": "function"
				},
				{
					"inputs": [
						{
							"internalType": "uint256",
							"name": "",
							"type": "uint256"
						}
					],
					"name": "products",
					"outputs": [
						{
							"internalType": "uint256",
							"name": "id",
							"type": "uint256"
						},
						{
							"internalType": "string",
							"name": "name",
							"type": "string"
						},
						{
							"internalType": "enum SimpleProductTracker.ProductStatus",
							"name": "status",
							"type": "uint8"
						}
					],
					"stateMutability": "view",
					"type": "function"
				},
				{
					"inputs": [
						{
							"internalType": "uint256",
							"name": "_id",
							"type": "uint256"
						},
						{
							"internalType": "address",
							"name": "_newOwner",
							"type": "address"
						}
					],
					"name": "transferOwnership",
					"outputs": [],
					"stateMutability": "nonpayable",
					"type": "function"
				},
				{
					"inputs": [
						{
							"internalType": "uint256",
							"name": "_productId",
							"type": "uint256"
						},
						{
							"internalType": "enum SimpleProductTracker.ProductStatus",
							"name": "_status",
							"type": "uint8"
						}
					],
					"name": "updateProductStatus",
					"outputs": [],
					"stateMutability": "nonpayable",
					"type": "function"
				}
			],
			"devdoc": {
				"kind": "dev",
				"methods": {},
				"version": 1
			},
			"evm": {
				"assembly": "    /* \"contracts/productTracker.sol\":60:2448  contract SimpleProductTracker {... */\n  mstore(0x40, 0x80)\n    /* \"contracts/productTracker.sol\":195:254  constructor() {... */\n  callvalue\n  dup1\n  iszero\n  tag_1\n  jumpi\n  0x00\n  dup1\n  revert\ntag_1:\n  pop\n    /* \"contracts/productTracker.sol\":236:246  msg.sender */\n  caller\n    /* \"contracts/productTracker.sol\":220:233  contractOwner */\n  0x00\n  dup1\n    /* \"contracts/productTracker.sol\":220:246  contractOwner = msg.sender */\n  0x0100\n  exp\n  dup2\n  sload\n  dup2\n  0xffffffffffffffffffffffffffffffffffffffff\n  mul\n  not\n  and\n  swap1\n  dup4\n  0xffffffffffffffffffffffffffffffffffffffff\n  and\n  mul\n  or\n  swap1\n  sstore\n  pop\n    /* \"contracts/productTracker.sol\":60:2448  contract SimpleProductTracker {... */\n  dataSize(sub_0)\n  dup1\n  dataOffset(sub_0)\n  0x00\n  codecopy\n  0x00\n  return\nstop\n\nsub_0: assembly {\n        /* \"contracts/productTracker.sol\":60:2448  contract SimpleProductTracker {... */\n      mstore(0x40, 0x80)\n      callvalue\n      dup1\n      iszero\n      tag_1\n      jumpi\n      0x00\n      dup1\n      revert\n    tag_1:\n      pop\n      jumpi(tag_2, lt(calldatasize, 0x04))\n      shr(0xe0, calldataload(0x00))\n      dup1\n      0x7acc0b20\n      gt\n      tag_10\n      jumpi\n      dup1\n      0x7acc0b20\n      eq\n      tag_6\n      jumpi\n      dup1\n      0x920e2621\n      eq\n      tag_7\n      jumpi\n      dup1\n      0xad95a8a2\n      eq\n      tag_8\n      jumpi\n      dup1\n      0xce606ee0\n      eq\n      tag_9\n      jumpi\n      jump(tag_2)\n    tag_10:\n      dup1\n      0x0a01841d\n      eq\n      tag_3\n      jumpi\n      dup1\n      0x29507f73\n      eq\n      tag_4\n      jumpi\n      dup1\n      0x6813b53b\n      eq\n      tag_5\n      jumpi\n    tag_2:\n      0x00\n      dup1\n      revert\n        /* \"contracts/productTracker.sol\":901:1271  function createProduct(uint256 _id, string memory _name) public onlyContractOwner {... */\n    tag_3:\n      tag_11\n      0x04\n      dup1\n      calldatasize\n      sub\n      dup2\n      add\n      swap1\n      tag_12\n      swap2\n      swap1\n      tag_13\n      jump\t// in\n    tag_12:\n      tag_14\n      jump\t// in\n    tag_11:\n      stop\n        /* \"contracts/productTracker.sol\":1279:1830  function transferOwnership(uint _id, address _newOwner) public onlyProductOwner(_id) {... */\n    tag_4:\n      tag_15\n      0x04\n      dup1\n      calldatasize\n      sub\n      dup2\n      add\n      swap1\n      tag_16\n      swap2\n      swap1\n      tag_17\n      jump\t// in\n    tag_16:\n      tag_18\n      jump\t// in\n    tag_15:\n      stop\n        /* \"contracts/productTracker.sol\":2075:2445  function getProductDetails(uint256 _productId) public view returns (uint256, string memory, address, ProductStatus) {... */\n    tag_5:\n      tag_19\n      0x04\n      dup1\n      calldatasize\n      sub\n      dup2\n      add\n      swap1\n      tag_20\n      swap2\n      swap1\n      tag_21\n      jump\t// in\n    tag_20:\n      tag_22\n      jump\t// in\n    tag_19:\n      mload(0x40)\n      tag_23\n      swap5\n      swap4\n      swap3\n      swap2\n      swap1\n      tag_24\n      jump\t// in\n    tag_23:\n      mload(0x40)\n      dup1\n      swap2\n      sub\n      swap1\n      return\n        /* \"contracts/productTracker.sol\":371:396  Product[] public products */\n    tag_6:\n      tag_25\n      0x04\n      dup1\n      calldatasize\n      sub\n      dup2\n      add\n      swap1\n      tag_26\n      swap2\n      swap1\n      tag_21\n      jump\t// in\n    tag_26:\n      tag_27\n      jump\t// in\n    tag_25:\n      mload(0x40)\n      tag_28\n      swap4\n      swap3\n      swap2\n      swap1\n      tag_29\n      jump\t// in\n    tag_28:\n      mload(0x40)\n      dup1\n      swap2\n      sub\n      swap1\n      return\n        /* \"contracts/productTracker.sol\":1838:2067  function updateProductStatus(uint256 _productId, ProductStatus _status) public onlyContractOwner {... */\n    tag_7:\n      tag_30\n      0x04\n      dup1\n      calldatasize\n      sub\n      dup2\n      add\n      swap1\n      tag_31\n      swap2\n      swap1\n      tag_32\n      jump\t// in\n    tag_31:\n      tag_33\n      jump\t// in\n    tag_30:\n      stop\n        /* \"contracts/productTracker.sol\":403:451  mapping(uint256 => address) public productOwners */\n    tag_8:\n      tag_34\n      0x04\n      dup1\n      calldatasize\n      sub\n      dup2\n      add\n      swap1\n      tag_35\n      swap2\n      swap1\n      tag_21\n      jump\t// in\n    tag_35:\n      tag_36\n      jump\t// in\n    tag_34:\n      mload(0x40)\n      tag_37\n      swap2\n      swap1\n      tag_38\n      jump\t// in\n    tag_37:\n      mload(0x40)\n      dup1\n      swap2\n      sub\n      swap1\n      return\n        /* \"contracts/productTracker.sol\":158:186  address public contractOwner */\n    tag_9:\n      tag_39\n      tag_40\n      jump\t// in\n    tag_39:\n      mload(0x40)\n      tag_41\n      swap2\n      swap1\n      tag_38\n      jump\t// in\n    tag_41:\n      mload(0x40)\n      dup1\n      swap2\n      sub\n      swap1\n      return\n        /* \"contracts/productTracker.sol\":901:1271  function createProduct(uint256 _id, string memory _name) public onlyContractOwner {... */\n    tag_14:\n        /* \"contracts/productTracker.sol\":673:686  contractOwner */\n      0x00\n      dup1\n      sload\n      swap1\n      0x0100\n      exp\n      swap1\n      div\n      0xffffffffffffffffffffffffffffffffffffffff\n      and\n        /* \"contracts/productTracker.sol\":659:686  msg.sender == contractOwner */\n      0xffffffffffffffffffffffffffffffffffffffff\n      and\n        /* \"contracts/productTracker.sol\":659:669  msg.sender */\n      caller\n        /* \"contracts/productTracker.sol\":659:686  msg.sender == contractOwner */\n      0xffffffffffffffffffffffffffffffffffffffff\n      and\n      eq\n        /* \"contracts/productTracker.sol\":651:721  require(msg.sender == contractOwner, \"You are not the contract owner\") */\n      tag_43\n      jumpi\n      mload(0x40)\n      0x08c379a000000000000000000000000000000000000000000000000000000000\n      dup2\n      mstore\n      0x04\n      add\n      tag_44\n      swap1\n      tag_45\n      jump\t// in\n    tag_44:\n      mload(0x40)\n      dup1\n      swap2\n      sub\n      swap1\n      revert\n    tag_43:\n        /* \"contracts/productTracker.sol\":994:1019  Product memory newProduct */\n      0x00\n        /* \"contracts/productTracker.sol\":1022:1134  Product({... */\n      mload(0x40)\n      dup1\n      0x60\n      add\n      0x40\n      mstore\n      dup1\n        /* \"contracts/productTracker.sol\":1049:1052  _id */\n      dup5\n        /* \"contracts/productTracker.sol\":1022:1134  Product({... */\n      dup2\n      mstore\n      0x20\n      add\n        /* \"contracts/productTracker.sol\":1073:1078  _name */\n      dup4\n        /* \"contracts/productTracker.sol\":1022:1134  Product({... */\n      dup2\n      mstore\n      0x20\n      add\n        /* \"contracts/productTracker.sol\":1101:1122  ProductStatus.Created */\n      0x00\n        /* \"contracts/productTracker.sol\":1022:1134  Product({... */\n      0x02\n      dup2\n      gt\n      iszero\n      tag_47\n      jumpi\n      tag_48\n      tag_49\n      jump\t// in\n    tag_48:\n    tag_47:\n      dup2\n      mstore\n      pop\n        /* \"contracts/productTracker.sol\":994:1134  Product memory newProduct = Product({... */\n      swap1\n      pop\n        /* \"contracts/productTracker.sol\":1145:1153  products */\n      0x01\n        /* \"contracts/productTracker.sol\":1159:1169  newProduct */\n      dup2\n        /* \"contracts/productTracker.sol\":1145:1170  products.push(newProduct) */\n      swap1\n      dup1\n      0x01\n      dup2\n      sload\n      add\n      dup1\n      dup3\n      sstore\n      dup1\n      swap2\n      pop\n      pop\n      0x01\n      swap1\n      sub\n      swap1\n      0x00\n      mstore\n      keccak256(0x00, 0x20)\n      swap1\n      0x03\n      mul\n      add\n      0x00\n      swap1\n      swap2\n      swap1\n      swap2\n      swap1\n      swap2\n      pop\n      0x00\n      dup3\n      add\n      mload\n      dup2\n      0x00\n      add\n      sstore\n      0x20\n      dup3\n      add\n      mload\n      dup2\n      0x01\n      add\n      swap1\n      dup2\n      tag_51\n      swap2\n      swap1\n      tag_52\n      jump\t// in\n    tag_51:\n      pop\n      0x40\n      dup3\n      add\n      mload\n      dup2\n      0x02\n      add\n      exp(0x0100, 0x00)\n      dup2\n      sload\n      dup2\n      0xff\n      mul\n      not\n      and\n      swap1\n      dup4\n      0x02\n      dup2\n      gt\n      iszero\n      tag_53\n      jumpi\n      tag_54\n      tag_49\n      jump\t// in\n    tag_54:\n    tag_53:\n      mul\n      or\n      swap1\n      sstore\n      pop\n      pop\n      pop\n        /* \"contracts/productTracker.sol\":1202:1212  msg.sender */\n      caller\n        /* \"contracts/productTracker.sol\":1181:1194  productOwners */\n      0x02\n        /* \"contracts/productTracker.sol\":1181:1199  productOwners[_id] */\n      0x00\n        /* \"contracts/productTracker.sol\":1195:1198  _id */\n      dup6\n        /* \"contracts/productTracker.sol\":1181:1199  productOwners[_id] */\n      dup2\n      mstore\n      0x20\n      add\n      swap1\n      dup2\n      mstore\n      0x20\n      add\n      0x00\n      keccak256\n      0x00\n        /* \"contracts/productTracker.sol\":1181:1212  productOwners[_id] = msg.sender */\n      0x0100\n      exp\n      dup2\n      sload\n      dup2\n      0xffffffffffffffffffffffffffffffffffffffff\n      mul\n      not\n      and\n      swap1\n      dup4\n      0xffffffffffffffffffffffffffffffffffffffff\n      and\n      mul\n      or\n      swap1\n      sstore\n      pop\n        /* \"contracts/productTracker.sol\":983:1271  {... */\n      pop\n        /* \"contracts/productTracker.sol\":901:1271  function createProduct(uint256 _id, string memory _name) public onlyContractOwner {... */\n      pop\n      pop\n      jump\t// out\n        /* \"contracts/productTracker.sol\":1279:1830  function transferOwnership(uint _id, address _newOwner) public onlyProductOwner(_id) {... */\n    tag_18:\n        /* \"contracts/productTracker.sol\":1359:1362  _id */\n      dup2\n        /* \"contracts/productTracker.sol\":829:839  msg.sender */\n      caller\n        /* \"contracts/productTracker.sol\":807:839  productOwners[_id] == msg.sender */\n      0xffffffffffffffffffffffffffffffffffffffff\n      and\n        /* \"contracts/productTracker.sol\":807:820  productOwners */\n      0x02\n        /* \"contracts/productTracker.sol\":807:825  productOwners[_id] */\n      0x00\n        /* \"contracts/productTracker.sol\":821:824  _id */\n      dup4\n        /* \"contracts/productTracker.sol\":807:825  productOwners[_id] */\n      dup2\n      mstore\n      0x20\n      add\n      swap1\n      dup2\n      mstore\n      0x20\n      add\n      0x00\n      keccak256\n      0x00\n      swap1\n      sload\n      swap1\n      0x0100\n      exp\n      swap1\n      div\n      0xffffffffffffffffffffffffffffffffffffffff\n      and\n        /* \"contracts/productTracker.sol\":807:839  productOwners[_id] == msg.sender */\n      0xffffffffffffffffffffffffffffffffffffffff\n      and\n      eq\n        /* \"contracts/productTracker.sol\":799:873  require(productOwners[_id] == msg.sender, \"You are not the product owner\") */\n      tag_56\n      jumpi\n      mload(0x40)\n      0x08c379a000000000000000000000000000000000000000000000000000000000\n      dup2\n      mstore\n      0x04\n      add\n      tag_57\n      swap1\n      tag_58\n      jump\t// in\n    tag_57:\n      mload(0x40)\n      dup1\n      swap2\n      sub\n      swap1\n      revert\n    tag_56:\n        /* \"contracts/productTracker.sol\":1389:1397  products */\n      0x01\n        /* \"contracts/productTracker.sol\":1389:1404  products.length */\n      dup1\n      sload\n      swap1\n      pop\n        /* \"contracts/productTracker.sol\":1383:1386  _id */\n      dup4\n        /* \"contracts/productTracker.sol\":1383:1404  _id < products.length */\n      lt\n        /* \"contracts/productTracker.sol\":1375:1431  require(_id < products.length, \"Product does not exist\") */\n      tag_60\n      jumpi\n      mload(0x40)\n      0x08c379a000000000000000000000000000000000000000000000000000000000\n      dup2\n      mstore\n      0x04\n      add\n      tag_61\n      swap1\n      tag_62\n      jump\t// in\n    tag_61:\n      mload(0x40)\n      dup1\n      swap2\n      sub\n      swap1\n      revert\n    tag_60:\n        /* \"contracts/productTracker.sol\":1471:1472  0 */\n      0x00\n        /* \"contracts/productTracker.sol\":1450:1473  _newOwner != address(0) */\n      0xffffffffffffffffffffffffffffffffffffffff\n      and\n        /* \"contracts/productTracker.sol\":1450:1459  _newOwner */\n      dup3\n        /* \"contracts/productTracker.sol\":1450:1473  _newOwner != address(0) */\n      0xffffffffffffffffffffffffffffffffffffffff\n      and\n      sub\n        /* \"contracts/productTracker.sol\":1442:1506  require(_newOwner != address(0), \"Please enter a valid address\") */\n      tag_63\n      jumpi\n      mload(0x40)\n      0x08c379a000000000000000000000000000000000000000000000000000000000\n      dup2\n      mstore\n      0x04\n      add\n      tag_64\n      swap1\n      tag_65\n      jump\t// in\n    tag_64:\n      mload(0x40)\n      dup1\n      swap2\n      sub\n      swap1\n      revert\n    tag_63:\n        /* \"contracts/productTracker.sol\":1549:1572  ProductStatus.Delivered */\n      0x02\n        /* \"contracts/productTracker.sol\":1525:1572  products[_id].status == ProductStatus.Delivered */\n      dup1\n      dup2\n      gt\n      iszero\n      tag_66\n      jumpi\n      tag_67\n      tag_49\n      jump\t// in\n    tag_67:\n    tag_66:\n        /* \"contracts/productTracker.sol\":1525:1533  products */\n      0x01\n        /* \"contracts/productTracker.sol\":1534:1537  _id */\n      dup5\n        /* \"contracts/productTracker.sol\":1525:1538  products[_id] */\n      dup2\n      sload\n      dup2\n      lt\n      tag_68\n      jumpi\n      tag_69\n      tag_70\n      jump\t// in\n    tag_69:\n    tag_68:\n      swap1\n      0x00\n      mstore\n      keccak256(0x00, 0x20)\n      swap1\n      0x03\n      mul\n      add\n        /* \"contracts/productTracker.sol\":1525:1545  products[_id].status */\n      0x02\n      add\n      0x00\n      swap1\n      sload\n      swap1\n      0x0100\n      exp\n      swap1\n      div\n      0xff\n      and\n        /* \"contracts/productTracker.sol\":1525:1572  products[_id].status == ProductStatus.Delivered */\n      0x02\n      dup2\n      gt\n      iszero\n      tag_72\n      jumpi\n      tag_73\n      tag_49\n      jump\t// in\n    tag_73:\n    tag_72:\n      eq\n        /* \"contracts/productTracker.sol\":1517:1625  require(products[_id].status == ProductStatus.Delivered, \"Ownership can only be transferred after delivery\") */\n      tag_74\n      jumpi\n      mload(0x40)\n      0x08c379a000000000000000000000000000000000000000000000000000000000\n      dup2\n      mstore\n      0x04\n      add\n      tag_75\n      swap1\n      tag_76\n      jump\t// in\n    tag_75:\n      mload(0x40)\n      dup1\n      swap2\n      sub\n      swap1\n      revert\n    tag_74:\n        /* \"contracts/productTracker.sol\":1638:1659  address previousOwner */\n      0x00\n        /* \"contracts/productTracker.sol\":1662:1675  productOwners */\n      0x02\n        /* \"contracts/productTracker.sol\":1662:1680  productOwners[_id] */\n      0x00\n        /* \"contracts/productTracker.sol\":1676:1679  _id */\n      dup6\n        /* \"contracts/productTracker.sol\":1662:1680  productOwners[_id] */\n      dup2\n      mstore\n      0x20\n      add\n      swap1\n      dup2\n      mstore\n      0x20\n      add\n      0x00\n      keccak256\n      0x00\n      swap1\n      sload\n      swap1\n      0x0100\n      exp\n      swap1\n      div\n      0xffffffffffffffffffffffffffffffffffffffff\n      and\n        /* \"contracts/productTracker.sol\":1638:1680  address previousOwner = productOwners[_id] */\n      swap1\n      pop\n        /* \"contracts/productTracker.sol\":1712:1721  _newOwner */\n      dup3\n        /* \"contracts/productTracker.sol\":1691:1704  productOwners */\n      0x02\n        /* \"contracts/productTracker.sol\":1691:1709  productOwners[_id] */\n      0x00\n        /* \"contracts/productTracker.sol\":1705:1708  _id */\n      dup7\n        /* \"contracts/productTracker.sol\":1691:1709  productOwners[_id] */\n      dup2\n      mstore\n      0x20\n      add\n      swap1\n      dup2\n      mstore\n      0x20\n      add\n      0x00\n      keccak256\n      0x00\n        /* \"contracts/productTracker.sol\":1691:1721  productOwners[_id] = _newOwner */\n      0x0100\n      exp\n      dup2\n      sload\n      dup2\n      0xffffffffffffffffffffffffffffffffffffffff\n      mul\n      not\n      and\n      swap1\n      dup4\n      0xffffffffffffffffffffffffffffffffffffffff\n      and\n      mul\n      or\n      swap1\n      sstore\n      pop\n        /* \"contracts/productTracker.sol\":1812:1821  _newOwner */\n      dup3\n        /* \"contracts/productTracker.sol\":1771:1822  OwnershipTransferred(_id, previousOwner, _newOwner) */\n      0xffffffffffffffffffffffffffffffffffffffff\n      and\n        /* \"contracts/productTracker.sol\":1797:1810  previousOwner */\n      dup2\n        /* \"contracts/productTracker.sol\":1771:1822  OwnershipTransferred(_id, previousOwner, _newOwner) */\n      0xffffffffffffffffffffffffffffffffffffffff\n      and\n        /* \"contracts/productTracker.sol\":1792:1795  _id */\n      dup6\n        /* \"contracts/productTracker.sol\":1771:1822  OwnershipTransferred(_id, previousOwner, _newOwner) */\n      0x16b85f49bf01212961345d3016c9a531894accf62eb7680f2045d79185cc0ec0\n      mload(0x40)\n      mload(0x40)\n      dup1\n      swap2\n      sub\n      swap1\n      log4\n        /* \"contracts/productTracker.sol\":1364:1830  {... */\n      pop\n        /* \"contracts/productTracker.sol\":1279:1830  function transferOwnership(uint _id, address _newOwner) public onlyProductOwner(_id) {... */\n      pop\n      pop\n      pop\n      jump\t// out\n        /* \"contracts/productTracker.sol\":2075:2445  function getProductDetails(uint256 _productId) public view returns (uint256, string memory, address, ProductStatus) {... */\n    tag_22:\n        /* \"contracts/productTracker.sol\":2143:2150  uint256 */\n      0x00\n        /* \"contracts/productTracker.sol\":2152:2165  string memory */\n      0x60\n        /* \"contracts/productTracker.sol\":2167:2174  address */\n      0x00\n        /* \"contracts/productTracker.sol\":2176:2189  ProductStatus */\n      dup1\n        /* \"contracts/productTracker.sol\":2223:2231  products */\n      0x01\n        /* \"contracts/productTracker.sol\":2223:2238  products.length */\n      dup1\n      sload\n      swap1\n      pop\n        /* \"contracts/productTracker.sol\":2210:2220  _productId */\n      dup6\n        /* \"contracts/productTracker.sol\":2210:2238  _productId < products.length */\n      lt\n        /* \"contracts/productTracker.sol\":2202:2265  require(_productId < products.length, \"Product does not exist\") */\n      tag_78\n      jumpi\n      mload(0x40)\n      0x08c379a000000000000000000000000000000000000000000000000000000000\n      dup2\n      mstore\n      0x04\n      add\n      tag_79\n      swap1\n      tag_62\n      jump\t// in\n    tag_79:\n      mload(0x40)\n      dup1\n      swap2\n      sub\n      swap1\n      revert\n    tag_78:\n        /* \"contracts/productTracker.sol\":2277:2299  Product memory product */\n      0x00\n        /* \"contracts/productTracker.sol\":2302:2310  products */\n      0x01\n        /* \"contracts/productTracker.sol\":2311:2321  _productId */\n      dup7\n        /* \"contracts/productTracker.sol\":2302:2322  products[_productId] */\n      dup2\n      sload\n      dup2\n      lt\n      tag_80\n      jumpi\n      tag_81\n      tag_70\n      jump\t// in\n    tag_81:\n    tag_80:\n      swap1\n      0x00\n      mstore\n      keccak256(0x00, 0x20)\n      swap1\n      0x03\n      mul\n      add\n        /* \"contracts/productTracker.sol\":2277:2322  Product memory product = products[_productId] */\n      mload(0x40)\n      dup1\n      0x60\n      add\n      0x40\n      mstore\n      swap1\n      dup2\n      0x00\n      dup3\n      add\n      sload\n      dup2\n      mstore\n      0x20\n      add\n      0x01\n      dup3\n      add\n      dup1\n      sload\n      tag_83\n      swap1\n      tag_84\n      jump\t// in\n    tag_83:\n      dup1\n      0x1f\n      add\n      0x20\n      dup1\n      swap2\n      div\n      mul\n      0x20\n      add\n      mload(0x40)\n      swap1\n      dup2\n      add\n      0x40\n      mstore\n      dup1\n      swap3\n      swap2\n      swap1\n      dup2\n      dup2\n      mstore\n      0x20\n      add\n      dup3\n      dup1\n      sload\n      tag_85\n      swap1\n      tag_84\n      jump\t// in\n    tag_85:\n      dup1\n      iszero\n      tag_86\n      jumpi\n      dup1\n      0x1f\n      lt\n      tag_87\n      jumpi\n      0x0100\n      dup1\n      dup4\n      sload\n      div\n      mul\n      dup4\n      mstore\n      swap2\n      0x20\n      add\n      swap2\n      jump(tag_86)\n    tag_87:\n      dup3\n      add\n      swap2\n      swap1\n      0x00\n      mstore\n      keccak256(0x00, 0x20)\n      swap1\n    tag_88:\n      dup2\n      sload\n      dup2\n      mstore\n      swap1\n      0x01\n      add\n      swap1\n      0x20\n      add\n      dup1\n      dup4\n      gt\n      tag_88\n      jumpi\n      dup3\n      swap1\n      sub\n      0x1f\n      and\n      dup3\n      add\n      swap2\n    tag_86:\n      pop\n      pop\n      pop\n      pop\n      pop\n      dup2\n      mstore\n      0x20\n      add\n      0x02\n      dup3\n      add\n      0x00\n      swap1\n      sload\n      swap1\n      0x0100\n      exp\n      swap1\n      div\n      0xff\n      and\n      0x02\n      dup2\n      gt\n      iszero\n      tag_89\n      jumpi\n      tag_90\n      tag_49\n      jump\t// in\n    tag_90:\n    tag_89:\n      0x02\n      dup2\n      gt\n      iszero\n      tag_91\n      jumpi\n      tag_92\n      tag_49\n      jump\t// in\n    tag_92:\n    tag_91:\n      dup2\n      mstore\n      pop\n      pop\n      swap1\n      pop\n        /* \"contracts/productTracker.sol\":2342:2349  product */\n      dup1\n        /* \"contracts/productTracker.sol\":2342:2352  product.id */\n      0x00\n      add\n      mload\n        /* \"contracts/productTracker.sol\":2354:2361  product */\n      dup2\n        /* \"contracts/productTracker.sol\":2354:2366  product.name */\n      0x20\n      add\n      mload\n        /* \"contracts/productTracker.sol\":2368:2381  productOwners */\n      0x02\n        /* \"contracts/productTracker.sol\":2368:2393  productOwners[_productId] */\n      0x00\n        /* \"contracts/productTracker.sol\":2382:2392  _productId */\n      dup10\n        /* \"contracts/productTracker.sol\":2368:2393  productOwners[_productId] */\n      dup2\n      mstore\n      0x20\n      add\n      swap1\n      dup2\n      mstore\n      0x20\n      add\n      0x00\n      keccak256\n      0x00\n      swap1\n      sload\n      swap1\n      0x0100\n      exp\n      swap1\n      div\n      0xffffffffffffffffffffffffffffffffffffffff\n      and\n        /* \"contracts/productTracker.sol\":2395:2402  product */\n      dup4\n        /* \"contracts/productTracker.sol\":2395:2409  product.status */\n      0x40\n      add\n      mload\n        /* \"contracts/productTracker.sol\":2334:2410  return (product.id, product.name, productOwners[_productId], product.status) */\n      swap5\n      pop\n      swap5\n      pop\n      swap5\n      pop\n      swap5\n      pop\n      pop\n        /* \"contracts/productTracker.sol\":2075:2445  function getProductDetails(uint256 _productId) public view returns (uint256, string memory, address, ProductStatus) {... */\n      swap2\n      swap4\n      pop\n      swap2\n      swap4\n      jump\t// out\n        /* \"contracts/productTracker.sol\":371:396  Product[] public products */\n    tag_27:\n      0x01\n      dup2\n      dup2\n      sload\n      dup2\n      lt\n      tag_93\n      jumpi\n      0x00\n      dup1\n      revert\n    tag_93:\n      swap1\n      0x00\n      mstore\n      keccak256(0x00, 0x20)\n      swap1\n      0x03\n      mul\n      add\n      0x00\n      swap2\n      pop\n      swap1\n      pop\n      dup1\n      0x00\n      add\n      sload\n      swap1\n      dup1\n      0x01\n      add\n      dup1\n      sload\n      tag_95\n      swap1\n      tag_84\n      jump\t// in\n    tag_95:\n      dup1\n      0x1f\n      add\n      0x20\n      dup1\n      swap2\n      div\n      mul\n      0x20\n      add\n      mload(0x40)\n      swap1\n      dup2\n      add\n      0x40\n      mstore\n      dup1\n      swap3\n      swap2\n      swap1\n      dup2\n      dup2\n      mstore\n      0x20\n      add\n      dup3\n      dup1\n      sload\n      tag_96\n      swap1\n      tag_84\n      jump\t// in\n    tag_96:\n      dup1\n      iszero\n      tag_97\n      jumpi\n      dup1\n      0x1f\n      lt\n      tag_98\n      jumpi\n      0x0100\n      dup1\n      dup4\n      sload\n      div\n      mul\n      dup4\n      mstore\n      swap2\n      0x20\n      add\n      swap2\n      jump(tag_97)\n    tag_98:\n      dup3\n      add\n      swap2\n      swap1\n      0x00\n      mstore\n      keccak256(0x00, 0x20)\n      swap1\n    tag_99:\n      dup2\n      sload\n      dup2\n      mstore\n      swap1\n      0x01\n      add\n      swap1\n      0x20\n      add\n      dup1\n      dup4\n      gt\n      tag_99\n      jumpi\n      dup3\n      swap1\n      sub\n      0x1f\n      and\n      dup3\n      add\n      swap2\n    tag_97:\n      pop\n      pop\n      pop\n      pop\n      pop\n      swap1\n      dup1\n      0x02\n      add\n      0x00\n      swap1\n      sload\n      swap1\n      0x0100\n      exp\n      swap1\n      div\n      0xff\n      and\n      swap1\n      pop\n      dup4\n      jump\t// out\n        /* \"contracts/productTracker.sol\":1838:2067  function updateProductStatus(uint256 _productId, ProductStatus _status) public onlyContractOwner {... */\n    tag_33:\n        /* \"contracts/productTracker.sol\":673:686  contractOwner */\n      0x00\n      dup1\n      sload\n      swap1\n      0x0100\n      exp\n      swap1\n      div\n      0xffffffffffffffffffffffffffffffffffffffff\n      and\n        /* \"contracts/productTracker.sol\":659:686  msg.sender == contractOwner */\n      0xffffffffffffffffffffffffffffffffffffffff\n      and\n        /* \"contracts/productTracker.sol\":659:669  msg.sender */\n      caller\n        /* \"contracts/productTracker.sol\":659:686  msg.sender == contractOwner */\n      0xffffffffffffffffffffffffffffffffffffffff\n      and\n      eq\n        /* \"contracts/productTracker.sol\":651:721  require(msg.sender == contractOwner, \"You are not the contract owner\") */\n      tag_101\n      jumpi\n      mload(0x40)\n      0x08c379a000000000000000000000000000000000000000000000000000000000\n      dup2\n      mstore\n      0x04\n      add\n      tag_102\n      swap1\n      tag_45\n      jump\t// in\n    tag_102:\n      mload(0x40)\n      dup1\n      swap2\n      sub\n      swap1\n      revert\n    tag_101:\n        /* \"contracts/productTracker.sol\":1967:1975  products */\n      0x01\n        /* \"contracts/productTracker.sol\":1967:1982  products.length */\n      dup1\n      sload\n      swap1\n      pop\n        /* \"contracts/productTracker.sol\":1954:1964  _productId */\n      dup3\n        /* \"contracts/productTracker.sol\":1954:1982  _productId < products.length */\n      lt\n        /* \"contracts/productTracker.sol\":1946:2009  require(_productId < products.length, \"Product does not exist\") */\n      tag_104\n      jumpi\n      mload(0x40)\n      0x08c379a000000000000000000000000000000000000000000000000000000000\n      dup2\n      mstore\n      0x04\n      add\n      tag_105\n      swap1\n      tag_62\n      jump\t// in\n    tag_105:\n      mload(0x40)\n      dup1\n      swap2\n      sub\n      swap1\n      revert\n    tag_104:\n        /* \"contracts/productTracker.sol\":2051:2058  _status */\n      dup1\n        /* \"contracts/productTracker.sol\":2021:2029  products */\n      0x01\n        /* \"contracts/productTracker.sol\":2030:2040  _productId */\n      dup4\n        /* \"contracts/productTracker.sol\":2021:2041  products[_productId] */\n      dup2\n      sload\n      dup2\n      lt\n      tag_106\n      jumpi\n      tag_107\n      tag_70\n      jump\t// in\n    tag_107:\n    tag_106:\n      swap1\n      0x00\n      mstore\n      keccak256(0x00, 0x20)\n      swap1\n      0x03\n      mul\n      add\n        /* \"contracts/productTracker.sol\":2021:2048  products[_productId].status */\n      0x02\n      add\n      0x00\n        /* \"contracts/productTracker.sol\":2021:2058  products[_productId].status = _status */\n      0x0100\n      exp\n      dup2\n      sload\n      dup2\n      0xff\n      mul\n      not\n      and\n      swap1\n      dup4\n      0x02\n      dup2\n      gt\n      iszero\n      tag_109\n      jumpi\n      tag_110\n      tag_49\n      jump\t// in\n    tag_110:\n    tag_109:\n      mul\n      or\n      swap1\n      sstore\n      pop\n        /* \"contracts/productTracker.sol\":1838:2067  function updateProductStatus(uint256 _productId, ProductStatus _status) public onlyContractOwner {... */\n      pop\n      pop\n      jump\t// out\n        /* \"contracts/productTracker.sol\":403:451  mapping(uint256 => address) public productOwners */\n    tag_36:\n      mstore(0x20, 0x02)\n      dup1\n      0x00\n      mstore\n      keccak256(0x00, 0x40)\n      0x00\n      swap2\n      pop\n      sload\n      swap1\n      0x0100\n      exp\n      swap1\n      div\n      0xffffffffffffffffffffffffffffffffffffffff\n      and\n      dup2\n      jump\t// out\n        /* \"contracts/productTracker.sol\":158:186  address public contractOwner */\n    tag_40:\n      0x00\n      dup1\n      sload\n      swap1\n      0x0100\n      exp\n      swap1\n      div\n      0xffffffffffffffffffffffffffffffffffffffff\n      and\n      dup2\n      jump\t// out\n        /* \"#utility.yul\":7:82   */\n    tag_111:\n        /* \"#utility.yul\":40:46   */\n      0x00\n        /* \"#utility.yul\":73:75   */\n      0x40\n        /* \"#utility.yul\":67:76   */\n      mload\n        /* \"#utility.yul\":57:76   */\n      swap1\n      pop\n        /* \"#utility.yul\":7:82   */\n      swap1\n      jump\t// out\n        /* \"#utility.yul\":88:205   */\n    tag_112:\n        /* \"#utility.yul\":197:198   */\n      0x00\n        /* \"#utility.yul\":194:195   */\n      dup1\n        /* \"#utility.yul\":187:199   */\n      revert\n        /* \"#utility.yul\":211:328   */\n    tag_113:\n        /* \"#utility.yul\":320:321   */\n      0x00\n        /* \"#utility.yul\":317:318   */\n      dup1\n        /* \"#utility.yul\":310:322   */\n      revert\n        /* \"#utility.yul\":334:411   */\n    tag_114:\n        /* \"#utility.yul\":371:378   */\n      0x00\n        /* \"#utility.yul\":400:405   */\n      dup2\n        /* \"#utility.yul\":389:405   */\n      swap1\n      pop\n        /* \"#utility.yul\":334:411   */\n      swap2\n      swap1\n      pop\n      jump\t// out\n        /* \"#utility.yul\":417:539   */\n    tag_115:\n        /* \"#utility.yul\":490:514   */\n      tag_175\n        /* \"#utility.yul\":508:513   */\n      dup2\n        /* \"#utility.yul\":490:514   */\n      tag_114\n      jump\t// in\n    tag_175:\n        /* \"#utility.yul\":483:488   */\n      dup2\n        /* \"#utility.yul\":480:515   */\n      eq\n        /* \"#utility.yul\":470:533   */\n      tag_176\n      jumpi\n        /* \"#utility.yul\":529:530   */\n      0x00\n        /* \"#utility.yul\":526:527   */\n      dup1\n        /* \"#utility.yul\":519:531   */\n      revert\n        /* \"#utility.yul\":470:533   */\n    tag_176:\n        /* \"#utility.yul\":417:539   */\n      pop\n      jump\t// out\n        /* \"#utility.yul\":545:684   */\n    tag_116:\n        /* \"#utility.yul\":591:596   */\n      0x00\n        /* \"#utility.yul\":629:635   */\n      dup2\n        /* \"#utility.yul\":616:636   */\n      calldataload\n        /* \"#utility.yul\":607:636   */\n      swap1\n      pop\n        /* \"#utility.yul\":645:678   */\n      tag_178\n        /* \"#utility.yul\":672:677   */\n      dup2\n        /* \"#utility.yul\":645:678   */\n      tag_115\n      jump\t// in\n    tag_178:\n        /* \"#utility.yul\":545:684   */\n      swap3\n      swap2\n      pop\n      pop\n      jump\t// out\n        /* \"#utility.yul\":690:807   */\n    tag_117:\n        /* \"#utility.yul\":799:800   */\n      0x00\n        /* \"#utility.yul\":796:797   */\n      dup1\n        /* \"#utility.yul\":789:801   */\n      revert\n        /* \"#utility.yul\":813:930   */\n    tag_118:\n        /* \"#utility.yul\":922:923   */\n      0x00\n        /* \"#utility.yul\":919:920   */\n      dup1\n        /* \"#utility.yul\":912:924   */\n      revert\n        /* \"#utility.yul\":936:1038   */\n    tag_119:\n        /* \"#utility.yul\":977:983   */\n      0x00\n        /* \"#utility.yul\":1028:1030   */\n      0x1f\n        /* \"#utility.yul\":1024:1031   */\n      not\n        /* \"#utility.yul\":1019:1021   */\n      0x1f\n        /* \"#utility.yul\":1012:1017   */\n      dup4\n        /* \"#utility.yul\":1008:1022   */\n      add\n        /* \"#utility.yul\":1004:1032   */\n      and\n        /* \"#utility.yul\":994:1032   */\n      swap1\n      pop\n        /* \"#utility.yul\":936:1038   */\n      swap2\n      swap1\n      pop\n      jump\t// out\n        /* \"#utility.yul\":1044:1224   */\n    tag_120:\n        /* \"#utility.yul\":1092:1169   */\n      0x4e487b7100000000000000000000000000000000000000000000000000000000\n        /* \"#utility.yul\":1089:1090   */\n      0x00\n        /* \"#utility.yul\":1082:1170   */\n      mstore\n        /* \"#utility.yul\":1189:1193   */\n      0x41\n        /* \"#utility.yul\":1186:1187   */\n      0x04\n        /* \"#utility.yul\":1179:1194   */\n      mstore\n        /* \"#utility.yul\":1213:1217   */\n      0x24\n        /* \"#utility.yul\":1210:1211   */\n      0x00\n        /* \"#utility.yul\":1203:1218   */\n      revert\n        /* \"#utility.yul\":1230:1511   */\n    tag_121:\n        /* \"#utility.yul\":1313:1340   */\n      tag_184\n        /* \"#utility.yul\":1335:1339   */\n      dup3\n        /* \"#utility.yul\":1313:1340   */\n      tag_119\n      jump\t// in\n    tag_184:\n        /* \"#utility.yul\":1305:1311   */\n      dup2\n        /* \"#utility.yul\":1301:1341   */\n      add\n        /* \"#utility.yul\":1443:1449   */\n      dup2\n        /* \"#utility.yul\":1431:1441   */\n      dup2\n        /* \"#utility.yul\":1428:1450   */\n      lt\n        /* \"#utility.yul\":1407:1425   */\n      0xffffffffffffffff\n        /* \"#utility.yul\":1395:1405   */\n      dup3\n        /* \"#utility.yul\":1392:1426   */\n      gt\n        /* \"#utility.yul\":1389:1451   */\n      or\n        /* \"#utility.yul\":1386:1474   */\n      iszero\n      tag_185\n      jumpi\n        /* \"#utility.yul\":1454:1472   */\n      tag_186\n      tag_120\n      jump\t// in\n    tag_186:\n        /* \"#utility.yul\":1386:1474   */\n    tag_185:\n        /* \"#utility.yul\":1494:1504   */\n      dup1\n        /* \"#utility.yul\":1490:1492   */\n      0x40\n        /* \"#utility.yul\":1483:1505   */\n      mstore\n        /* \"#utility.yul\":1273:1511   */\n      pop\n        /* \"#utility.yul\":1230:1511   */\n      pop\n      pop\n      jump\t// out\n        /* \"#utility.yul\":1517:1646   */\n    tag_122:\n        /* \"#utility.yul\":1551:1557   */\n      0x00\n        /* \"#utility.yul\":1578:1598   */\n      tag_188\n      tag_111\n      jump\t// in\n    tag_188:\n        /* \"#utility.yul\":1568:1598   */\n      swap1\n      pop\n        /* \"#utility.yul\":1607:1640   */\n      tag_189\n        /* \"#utility.yul\":1635:1639   */\n      dup3\n        /* \"#utility.yul\":1627:1633   */\n      dup3\n        /* \"#utility.yul\":1607:1640   */\n      tag_121\n      jump\t// in\n    tag_189:\n        /* \"#utility.yul\":1517:1646   */\n      swap2\n      swap1\n      pop\n      jump\t// out\n        /* \"#utility.yul\":1652:1960   */\n    tag_123:\n        /* \"#utility.yul\":1714:1718   */\n      0x00\n        /* \"#utility.yul\":1804:1822   */\n      0xffffffffffffffff\n        /* \"#utility.yul\":1796:1802   */\n      dup3\n        /* \"#utility.yul\":1793:1823   */\n      gt\n        /* \"#utility.yul\":1790:1846   */\n      iszero\n      tag_191\n      jumpi\n        /* \"#utility.yul\":1826:1844   */\n      tag_192\n      tag_120\n      jump\t// in\n    tag_192:\n        /* \"#utility.yul\":1790:1846   */\n    tag_191:\n        /* \"#utility.yul\":1864:1893   */\n      tag_193\n        /* \"#utility.yul\":1886:1892   */\n      dup3\n        /* \"#utility.yul\":1864:1893   */\n      tag_119\n      jump\t// in\n    tag_193:\n        /* \"#utility.yul\":1856:1893   */\n      swap1\n      pop\n        /* \"#utility.yul\":1948:1952   */\n      0x20\n        /* \"#utility.yul\":1942:1946   */\n      dup2\n        /* \"#utility.yul\":1938:1953   */\n      add\n        /* \"#utility.yul\":1930:1953   */\n      swap1\n      pop\n        /* \"#utility.yul\":1652:1960   */\n      swap2\n      swap1\n      pop\n      jump\t// out\n        /* \"#utility.yul\":1966:2114   */\n    tag_124:\n        /* \"#utility.yul\":2064:2070   */\n      dup3\n        /* \"#utility.yul\":2059:2062   */\n      dup2\n        /* \"#utility.yul\":2054:2057   */\n      dup4\n        /* \"#utility.yul\":2041:2071   */\n      calldatacopy\n        /* \"#utility.yul\":2105:2106   */\n      0x00\n        /* \"#utility.yul\":2096:2102   */\n      dup4\n        /* \"#utility.yul\":2091:2094   */\n      dup4\n        /* \"#utility.yul\":2087:2103   */\n      add\n        /* \"#utility.yul\":2080:2107   */\n      mstore\n        /* \"#utility.yul\":1966:2114   */\n      pop\n      pop\n      pop\n      jump\t// out\n        /* \"#utility.yul\":2120:2545   */\n    tag_125:\n        /* \"#utility.yul\":2198:2203   */\n      0x00\n        /* \"#utility.yul\":2223:2289   */\n      tag_196\n        /* \"#utility.yul\":2239:2288   */\n      tag_197\n        /* \"#utility.yul\":2281:2287   */\n      dup5\n        /* \"#utility.yul\":2239:2288   */\n      tag_123\n      jump\t// in\n    tag_197:\n        /* \"#utility.yul\":2223:2289   */\n      tag_122\n      jump\t// in\n    tag_196:\n        /* \"#utility.yul\":2214:2289   */\n      swap1\n      pop\n        /* \"#utility.yul\":2312:2318   */\n      dup3\n        /* \"#utility.yul\":2305:2310   */\n      dup2\n        /* \"#utility.yul\":2298:2319   */\n      mstore\n        /* \"#utility.yul\":2350:2354   */\n      0x20\n        /* \"#utility.yul\":2343:2348   */\n      dup2\n        /* \"#utility.yul\":2339:2355   */\n      add\n        /* \"#utility.yul\":2388:2391   */\n      dup5\n        /* \"#utility.yul\":2379:2385   */\n      dup5\n        /* \"#utility.yul\":2374:2377   */\n      dup5\n        /* \"#utility.yul\":2370:2386   */\n      add\n        /* \"#utility.yul\":2367:2392   */\n      gt\n        /* \"#utility.yul\":2364:2476   */\n      iszero\n      tag_198\n      jumpi\n        /* \"#utility.yul\":2395:2474   */\n      tag_199\n      tag_118\n      jump\t// in\n    tag_199:\n        /* \"#utility.yul\":2364:2476   */\n    tag_198:\n        /* \"#utility.yul\":2485:2539   */\n      tag_200\n        /* \"#utility.yul\":2532:2538   */\n      dup5\n        /* \"#utility.yul\":2527:2530   */\n      dup3\n        /* \"#utility.yul\":2522:2525   */\n      dup6\n        /* \"#utility.yul\":2485:2539   */\n      tag_124\n      jump\t// in\n    tag_200:\n        /* \"#utility.yul\":2204:2545   */\n      pop\n        /* \"#utility.yul\":2120:2545   */\n      swap4\n      swap3\n      pop\n      pop\n      pop\n      jump\t// out\n        /* \"#utility.yul\":2565:2905   */\n    tag_126:\n        /* \"#utility.yul\":2621:2626   */\n      0x00\n        /* \"#utility.yul\":2670:2673   */\n      dup3\n        /* \"#utility.yul\":2663:2667   */\n      0x1f\n        /* \"#utility.yul\":2655:2661   */\n      dup4\n        /* \"#utility.yul\":2651:2668   */\n      add\n        /* \"#utility.yul\":2647:2674   */\n      slt\n        /* \"#utility.yul\":2637:2759   */\n      tag_202\n      jumpi\n        /* \"#utility.yul\":2678:2757   */\n      tag_203\n      tag_117\n      jump\t// in\n    tag_203:\n        /* \"#utility.yul\":2637:2759   */\n    tag_202:\n        /* \"#utility.yul\":2795:2801   */\n      dup2\n        /* \"#utility.yul\":2782:2802   */\n      calldataload\n        /* \"#utility.yul\":2820:2899   */\n      tag_204\n        /* \"#utility.yul\":2895:2898   */\n      dup5\n        /* \"#utility.yul\":2887:2893   */\n      dup3\n        /* \"#utility.yul\":2880:2884   */\n      0x20\n        /* \"#utility.yul\":2872:2878   */\n      dup7\n        /* \"#utility.yul\":2868:2885   */\n      add\n        /* \"#utility.yul\":2820:2899   */\n      tag_125\n      jump\t// in\n    tag_204:\n        /* \"#utility.yul\":2811:2899   */\n      swap2\n      pop\n        /* \"#utility.yul\":2627:2905   */\n      pop\n        /* \"#utility.yul\":2565:2905   */\n      swap3\n      swap2\n      pop\n      pop\n      jump\t// out\n        /* \"#utility.yul\":2911:3565   */\n    tag_13:\n        /* \"#utility.yul\":2989:2995   */\n      0x00\n        /* \"#utility.yul\":2997:3003   */\n      dup1\n        /* \"#utility.yul\":3046:3048   */\n      0x40\n        /* \"#utility.yul\":3034:3043   */\n      dup4\n        /* \"#utility.yul\":3025:3032   */\n      dup6\n        /* \"#utility.yul\":3021:3044   */\n      sub\n        /* \"#utility.yul\":3017:3049   */\n      slt\n        /* \"#utility.yul\":3014:3133   */\n      iszero\n      tag_206\n      jumpi\n        /* \"#utility.yul\":3052:3131   */\n      tag_207\n      tag_112\n      jump\t// in\n    tag_207:\n        /* \"#utility.yul\":3014:3133   */\n    tag_206:\n        /* \"#utility.yul\":3172:3173   */\n      0x00\n        /* \"#utility.yul\":3197:3250   */\n      tag_208\n        /* \"#utility.yul\":3242:3249   */\n      dup6\n        /* \"#utility.yul\":3233:3239   */\n      dup3\n        /* \"#utility.yul\":3222:3231   */\n      dup7\n        /* \"#utility.yul\":3218:3240   */\n      add\n        /* \"#utility.yul\":3197:3250   */\n      tag_116\n      jump\t// in\n    tag_208:\n        /* \"#utility.yul\":3187:3250   */\n      swap3\n      pop\n        /* \"#utility.yul\":3143:3260   */\n      pop\n        /* \"#utility.yul\":3327:3329   */\n      0x20\n        /* \"#utility.yul\":3316:3325   */\n      dup4\n        /* \"#utility.yul\":3312:3330   */\n      add\n        /* \"#utility.yul\":3299:3331   */\n      calldataload\n        /* \"#utility.yul\":3358:3376   */\n      0xffffffffffffffff\n        /* \"#utility.yul\":3350:3356   */\n      dup2\n        /* \"#utility.yul\":3347:3377   */\n      gt\n        /* \"#utility.yul\":3344:3461   */\n      iszero\n      tag_209\n      jumpi\n        /* \"#utility.yul\":3380:3459   */\n      tag_210\n      tag_113\n      jump\t// in\n    tag_210:\n        /* \"#utility.yul\":3344:3461   */\n    tag_209:\n        /* \"#utility.yul\":3485:3548   */\n      tag_211\n        /* \"#utility.yul\":3540:3547   */\n      dup6\n        /* \"#utility.yul\":3531:3537   */\n      dup3\n        /* \"#utility.yul\":3520:3529   */\n      dup7\n        /* \"#utility.yul\":3516:3538   */\n      add\n        /* \"#utility.yul\":3485:3548   */\n      tag_126\n      jump\t// in\n    tag_211:\n        /* \"#utility.yul\":3475:3548   */\n      swap2\n      pop\n        /* \"#utility.yul\":3270:3558   */\n      pop\n        /* \"#utility.yul\":2911:3565   */\n      swap3\n      pop\n      swap3\n      swap1\n      pop\n      jump\t// out\n        /* \"#utility.yul\":3571:3697   */\n    tag_127:\n        /* \"#utility.yul\":3608:3615   */\n      0x00\n        /* \"#utility.yul\":3648:3690   */\n      0xffffffffffffffffffffffffffffffffffffffff\n        /* \"#utility.yul\":3641:3646   */\n      dup3\n        /* \"#utility.yul\":3637:3691   */\n      and\n        /* \"#utility.yul\":3626:3691   */\n      swap1\n      pop\n        /* \"#utility.yul\":3571:3697   */\n      swap2\n      swap1\n      pop\n      jump\t// out\n        /* \"#utility.yul\":3703:3799   */\n    tag_128:\n        /* \"#utility.yul\":3740:3747   */\n      0x00\n        /* \"#utility.yul\":3769:3793   */\n      tag_214\n        /* \"#utility.yul\":3787:3792   */\n      dup3\n        /* \"#utility.yul\":3769:3793   */\n      tag_127\n      jump\t// in\n    tag_214:\n        /* \"#utility.yul\":3758:3793   */\n      swap1\n      pop\n        /* \"#utility.yul\":3703:3799   */\n      swap2\n      swap1\n      pop\n      jump\t// out\n        /* \"#utility.yul\":3805:3927   */\n    tag_129:\n        /* \"#utility.yul\":3878:3902   */\n      tag_216\n        /* \"#utility.yul\":3896:3901   */\n      dup2\n        /* \"#utility.yul\":3878:3902   */\n      tag_128\n      jump\t// in\n    tag_216:\n        /* \"#utility.yul\":3871:3876   */\n      dup2\n        /* \"#utility.yul\":3868:3903   */\n      eq\n        /* \"#utility.yul\":3858:3921   */\n      tag_217\n      jumpi\n        /* \"#utility.yul\":3917:3918   */\n      0x00\n        /* \"#utility.yul\":3914:3915   */\n      dup1\n        /* \"#utility.yul\":3907:3919   */\n      revert\n        /* \"#utility.yul\":3858:3921   */\n    tag_217:\n        /* \"#utility.yul\":3805:3927   */\n      pop\n      jump\t// out\n        /* \"#utility.yul\":3933:4072   */\n    tag_130:\n        /* \"#utility.yul\":3979:3984   */\n      0x00\n        /* \"#utility.yul\":4017:4023   */\n      dup2\n        /* \"#utility.yul\":4004:4024   */\n      calldataload\n        /* \"#utility.yul\":3995:4024   */\n      swap1\n      pop\n        /* \"#utility.yul\":4033:4066   */\n      tag_219\n        /* \"#utility.yul\":4060:4065   */\n      dup2\n        /* \"#utility.yul\":4033:4066   */\n      tag_129\n      jump\t// in\n    tag_219:\n        /* \"#utility.yul\":3933:4072   */\n      swap3\n      swap2\n      pop\n      pop\n      jump\t// out\n        /* \"#utility.yul\":4078:4552   */\n    tag_17:\n        /* \"#utility.yul\":4146:4152   */\n      0x00\n        /* \"#utility.yul\":4154:4160   */\n      dup1\n        /* \"#utility.yul\":4203:4205   */\n      0x40\n        /* \"#utility.yul\":4191:4200   */\n      dup4\n        /* \"#utility.yul\":4182:4189   */\n      dup6\n        /* \"#utility.yul\":4178:4201   */\n      sub\n        /* \"#utility.yul\":4174:4206   */\n      slt\n        /* \"#utility.yul\":4171:4290   */\n      iszero\n      tag_221\n      jumpi\n        /* \"#utility.yul\":4209:4288   */\n      tag_222\n      tag_112\n      jump\t// in\n    tag_222:\n        /* \"#utility.yul\":4171:4290   */\n    tag_221:\n        /* \"#utility.yul\":4329:4330   */\n      0x00\n        /* \"#utility.yul\":4354:4407   */\n      tag_223\n        /* \"#utility.yul\":4399:4406   */\n      dup6\n        /* \"#utility.yul\":4390:4396   */\n      dup3\n        /* \"#utility.yul\":4379:4388   */\n      dup7\n        /* \"#utility.yul\":4375:4397   */\n      add\n        /* \"#utility.yul\":4354:4407   */\n      tag_116\n      jump\t// in\n    tag_223:\n        /* \"#utility.yul\":4344:4407   */\n      swap3\n      pop\n        /* \"#utility.yul\":4300:4417   */\n      pop\n        /* \"#utility.yul\":4456:4458   */\n      0x20\n        /* \"#utility.yul\":4482:4535   */\n      tag_224\n        /* \"#utility.yul\":4527:4534   */\n      dup6\n        /* \"#utility.yul\":4518:4524   */\n      dup3\n        /* \"#utility.yul\":4507:4516   */\n      dup7\n        /* \"#utility.yul\":4503:4525   */\n      add\n        /* \"#utility.yul\":4482:4535   */\n      tag_130\n      jump\t// in\n    tag_224:\n        /* \"#utility.yul\":4472:4535   */\n      swap2\n      pop\n        /* \"#utility.yul\":4427:4545   */\n      pop\n        /* \"#utility.yul\":4078:4552   */\n      swap3\n      pop\n      swap3\n      swap1\n      pop\n      jump\t// out\n        /* \"#utility.yul\":4558:4887   */\n    tag_21:\n        /* \"#utility.yul\":4617:4623   */\n      0x00\n        /* \"#utility.yul\":4666:4668   */\n      0x20\n        /* \"#utility.yul\":4654:4663   */\n      dup3\n        /* \"#utility.yul\":4645:4652   */\n      dup5\n        /* \"#utility.yul\":4641:4664   */\n      sub\n        /* \"#utility.yul\":4637:4669   */\n      slt\n        /* \"#utility.yul\":4634:4753   */\n      iszero\n      tag_226\n      jumpi\n        /* \"#utility.yul\":4672:4751   */\n      tag_227\n      tag_112\n      jump\t// in\n    tag_227:\n        /* \"#utility.yul\":4634:4753   */\n    tag_226:\n        /* \"#utility.yul\":4792:4793   */\n      0x00\n        /* \"#utility.yul\":4817:4870   */\n      tag_228\n        /* \"#utility.yul\":4862:4869   */\n      dup5\n        /* \"#utility.yul\":4853:4859   */\n      dup3\n        /* \"#utility.yul\":4842:4851   */\n      dup6\n        /* \"#utility.yul\":4838:4860   */\n      add\n        /* \"#utility.yul\":4817:4870   */\n      tag_116\n      jump\t// in\n    tag_228:\n        /* \"#utility.yul\":4807:4870   */\n      swap2\n      pop\n        /* \"#utility.yul\":4763:4880   */\n      pop\n        /* \"#utility.yul\":4558:4887   */\n      swap3\n      swap2\n      pop\n      pop\n      jump\t// out\n        /* \"#utility.yul\":4893:5011   */\n    tag_131:\n        /* \"#utility.yul\":4980:5004   */\n      tag_230\n        /* \"#utility.yul\":4998:5003   */\n      dup2\n        /* \"#utility.yul\":4980:5004   */\n      tag_114\n      jump\t// in\n    tag_230:\n        /* \"#utility.yul\":4975:4978   */\n      dup3\n        /* \"#utility.yul\":4968:5005   */\n      mstore\n        /* \"#utility.yul\":4893:5011   */\n      pop\n      pop\n      jump\t// out\n        /* \"#utility.yul\":5017:5116   */\n    tag_132:\n        /* \"#utility.yul\":5069:5075   */\n      0x00\n        /* \"#utility.yul\":5103:5108   */\n      dup2\n        /* \"#utility.yul\":5097:5109   */\n      mload\n        /* \"#utility.yul\":5087:5109   */\n      swap1\n      pop\n        /* \"#utility.yul\":5017:5116   */\n      swap2\n      swap1\n      pop\n      jump\t// out\n        /* \"#utility.yul\":5122:5291   */\n    tag_133:\n        /* \"#utility.yul\":5206:5217   */\n      0x00\n        /* \"#utility.yul\":5240:5246   */\n      dup3\n        /* \"#utility.yul\":5235:5238   */\n      dup3\n        /* \"#utility.yul\":5228:5247   */\n      mstore\n        /* \"#utility.yul\":5280:5284   */\n      0x20\n        /* \"#utility.yul\":5275:5278   */\n      dup3\n        /* \"#utility.yul\":5271:5285   */\n      add\n        /* \"#utility.yul\":5256:5285   */\n      swap1\n      pop\n        /* \"#utility.yul\":5122:5291   */\n      swap3\n      swap2\n      pop\n      pop\n      jump\t// out\n        /* \"#utility.yul\":5297:5436   */\n    tag_134:\n        /* \"#utility.yul\":5386:5392   */\n      dup3\n        /* \"#utility.yul\":5381:5384   */\n      dup2\n        /* \"#utility.yul\":5376:5379   */\n      dup4\n        /* \"#utility.yul\":5370:5393   */\n      mcopy\n        /* \"#utility.yul\":5427:5428   */\n      0x00\n        /* \"#utility.yul\":5418:5424   */\n      dup4\n        /* \"#utility.yul\":5413:5416   */\n      dup4\n        /* \"#utility.yul\":5409:5425   */\n      add\n        /* \"#utility.yul\":5402:5429   */\n      mstore\n        /* \"#utility.yul\":5297:5436   */\n      pop\n      pop\n      pop\n      jump\t// out\n        /* \"#utility.yul\":5442:5819   */\n    tag_135:\n        /* \"#utility.yul\":5530:5533   */\n      0x00\n        /* \"#utility.yul\":5558:5597   */\n      tag_235\n        /* \"#utility.yul\":5591:5596   */\n      dup3\n        /* \"#utility.yul\":5558:5597   */\n      tag_132\n      jump\t// in\n    tag_235:\n        /* \"#utility.yul\":5613:5684   */\n      tag_236\n        /* \"#utility.yul\":5677:5683   */\n      dup2\n        /* \"#utility.yul\":5672:5675   */\n      dup6\n        /* \"#utility.yul\":5613:5684   */\n      tag_133\n      jump\t// in\n    tag_236:\n        /* \"#utility.yul\":5606:5684   */\n      swap4\n      pop\n        /* \"#utility.yul\":5693:5758   */\n      tag_237\n        /* \"#utility.yul\":5751:5757   */\n      dup2\n        /* \"#utility.yul\":5746:5749   */\n      dup6\n        /* \"#utility.yul\":5739:5743   */\n      0x20\n        /* \"#utility.yul\":5732:5737   */\n      dup7\n        /* \"#utility.yul\":5728:5744   */\n      add\n        /* \"#utility.yul\":5693:5758   */\n      tag_134\n      jump\t// in\n    tag_237:\n        /* \"#utility.yul\":5783:5812   */\n      tag_238\n        /* \"#utility.yul\":5805:5811   */\n      dup2\n        /* \"#utility.yul\":5783:5812   */\n      tag_119\n      jump\t// in\n    tag_238:\n        /* \"#utility.yul\":5778:5781   */\n      dup5\n        /* \"#utility.yul\":5774:5813   */\n      add\n        /* \"#utility.yul\":5767:5813   */\n      swap2\n      pop\n        /* \"#utility.yul\":5534:5819   */\n      pop\n        /* \"#utility.yul\":5442:5819   */\n      swap3\n      swap2\n      pop\n      pop\n      jump\t// out\n        /* \"#utility.yul\":5825:5943   */\n    tag_136:\n        /* \"#utility.yul\":5912:5936   */\n      tag_240\n        /* \"#utility.yul\":5930:5935   */\n      dup2\n        /* \"#utility.yul\":5912:5936   */\n      tag_128\n      jump\t// in\n    tag_240:\n        /* \"#utility.yul\":5907:5910   */\n      dup3\n        /* \"#utility.yul\":5900:5937   */\n      mstore\n        /* \"#utility.yul\":5825:5943   */\n      pop\n      pop\n      jump\t// out\n        /* \"#utility.yul\":5949:6129   */\n    tag_49:\n        /* \"#utility.yul\":5997:6074   */\n      0x4e487b7100000000000000000000000000000000000000000000000000000000\n        /* \"#utility.yul\":5994:5995   */\n      0x00\n        /* \"#utility.yul\":5987:6075   */\n      mstore\n        /* \"#utility.yul\":6094:6098   */\n      0x21\n        /* \"#utility.yul\":6091:6092   */\n      0x04\n        /* \"#utility.yul\":6084:6099   */\n      mstore\n        /* \"#utility.yul\":6118:6122   */\n      0x24\n        /* \"#utility.yul\":6115:6116   */\n      0x00\n        /* \"#utility.yul\":6108:6123   */\n      revert\n        /* \"#utility.yul\":6135:6255   */\n    tag_137:\n        /* \"#utility.yul\":6223:6224   */\n      0x03\n        /* \"#utility.yul\":6216:6221   */\n      dup2\n        /* \"#utility.yul\":6213:6225   */\n      lt\n        /* \"#utility.yul\":6203:6249   */\n      tag_243\n      jumpi\n        /* \"#utility.yul\":6229:6247   */\n      tag_244\n      tag_49\n      jump\t// in\n    tag_244:\n        /* \"#utility.yul\":6203:6249   */\n    tag_243:\n        /* \"#utility.yul\":6135:6255   */\n      pop\n      jump\t// out\n        /* \"#utility.yul\":6261:6402   */\n    tag_138:\n        /* \"#utility.yul\":6313:6320   */\n      0x00\n        /* \"#utility.yul\":6342:6347   */\n      dup2\n        /* \"#utility.yul\":6331:6347   */\n      swap1\n      pop\n        /* \"#utility.yul\":6348:6396   */\n      tag_246\n        /* \"#utility.yul\":6390:6395   */\n      dup3\n        /* \"#utility.yul\":6348:6396   */\n      tag_137\n      jump\t// in\n    tag_246:\n        /* \"#utility.yul\":6261:6402   */\n      swap2\n      swap1\n      pop\n      jump\t// out\n        /* \"#utility.yul\":6408:6549   */\n    tag_139:\n        /* \"#utility.yul\":6471:6480   */\n      0x00\n        /* \"#utility.yul\":6504:6543   */\n      tag_248\n        /* \"#utility.yul\":6537:6542   */\n      dup3\n        /* \"#utility.yul\":6504:6543   */\n      tag_138\n      jump\t// in\n    tag_248:\n        /* \"#utility.yul\":6491:6543   */\n      swap1\n      pop\n        /* \"#utility.yul\":6408:6549   */\n      swap2\n      swap1\n      pop\n      jump\t// out\n        /* \"#utility.yul\":6555:6712   */\n    tag_140:\n        /* \"#utility.yul\":6655:6705   */\n      tag_250\n        /* \"#utility.yul\":6699:6704   */\n      dup2\n        /* \"#utility.yul\":6655:6705   */\n      tag_139\n      jump\t// in\n    tag_250:\n        /* \"#utility.yul\":6650:6653   */\n      dup3\n        /* \"#utility.yul\":6643:6706   */\n      mstore\n        /* \"#utility.yul\":6555:6712   */\n      pop\n      pop\n      jump\t// out\n        /* \"#utility.yul\":6718:7388   */\n    tag_24:\n        /* \"#utility.yul\":6928:6932   */\n      0x00\n        /* \"#utility.yul\":6966:6969   */\n      0x80\n        /* \"#utility.yul\":6955:6964   */\n      dup3\n        /* \"#utility.yul\":6951:6970   */\n      add\n        /* \"#utility.yul\":6943:6970   */\n      swap1\n      pop\n        /* \"#utility.yul\":6980:7051   */\n      tag_252\n        /* \"#utility.yul\":7048:7049   */\n      0x00\n        /* \"#utility.yul\":7037:7046   */\n      dup4\n        /* \"#utility.yul\":7033:7050   */\n      add\n        /* \"#utility.yul\":7024:7030   */\n      dup8\n        /* \"#utility.yul\":6980:7051   */\n      tag_131\n      jump\t// in\n    tag_252:\n        /* \"#utility.yul\":7098:7107   */\n      dup2\n        /* \"#utility.yul\":7092:7096   */\n      dup2\n        /* \"#utility.yul\":7088:7108   */\n      sub\n        /* \"#utility.yul\":7083:7085   */\n      0x20\n        /* \"#utility.yul\":7072:7081   */\n      dup4\n        /* \"#utility.yul\":7068:7086   */\n      add\n        /* \"#utility.yul\":7061:7109   */\n      mstore\n        /* \"#utility.yul\":7126:7204   */\n      tag_253\n        /* \"#utility.yul\":7199:7203   */\n      dup2\n        /* \"#utility.yul\":7190:7196   */\n      dup7\n        /* \"#utility.yul\":7126:7204   */\n      tag_135\n      jump\t// in\n    tag_253:\n        /* \"#utility.yul\":7118:7204   */\n      swap1\n      pop\n        /* \"#utility.yul\":7214:7286   */\n      tag_254\n        /* \"#utility.yul\":7282:7284   */\n      0x40\n        /* \"#utility.yul\":7271:7280   */\n      dup4\n        /* \"#utility.yul\":7267:7285   */\n      add\n        /* \"#utility.yul\":7258:7264   */\n      dup6\n        /* \"#utility.yul\":7214:7286   */\n      tag_136\n      jump\t// in\n    tag_254:\n        /* \"#utility.yul\":7296:7381   */\n      tag_255\n        /* \"#utility.yul\":7377:7379   */\n      0x60\n        /* \"#utility.yul\":7366:7375   */\n      dup4\n        /* \"#utility.yul\":7362:7380   */\n      add\n        /* \"#utility.yul\":7353:7359   */\n      dup5\n        /* \"#utility.yul\":7296:7381   */\n      tag_140\n      jump\t// in\n    tag_255:\n        /* \"#utility.yul\":6718:7388   */\n      swap6\n      swap5\n      pop\n      pop\n      pop\n      pop\n      pop\n      jump\t// out\n        /* \"#utility.yul\":7394:7953   */\n    tag_29:\n        /* \"#utility.yul\":7576:7580   */\n      0x00\n        /* \"#utility.yul\":7614:7616   */\n      0x60\n        /* \"#utility.yul\":7603:7612   */\n      dup3\n        /* \"#utility.yul\":7599:7617   */\n      add\n        /* \"#utility.yul\":7591:7617   */\n      swap1\n      pop\n        /* \"#utility.yul\":7627:7698   */\n      tag_257\n        /* \"#utility.yul\":7695:7696   */\n      0x00\n        /* \"#utility.yul\":7684:7693   */\n      dup4\n        /* \"#utility.yul\":7680:7697   */\n      add\n        /* \"#utility.yul\":7671:7677   */\n      dup7\n        /* \"#utility.yul\":7627:7698   */\n      tag_131\n      jump\t// in\n    tag_257:\n        /* \"#utility.yul\":7745:7754   */\n      dup2\n        /* \"#utility.yul\":7739:7743   */\n      dup2\n        /* \"#utility.yul\":7735:7755   */\n      sub\n        /* \"#utility.yul\":7730:7732   */\n      0x20\n        /* \"#utility.yul\":7719:7728   */\n      dup4\n        /* \"#utility.yul\":7715:7733   */\n      add\n        /* \"#utility.yul\":7708:7756   */\n      mstore\n        /* \"#utility.yul\":7773:7851   */\n      tag_258\n        /* \"#utility.yul\":7846:7850   */\n      dup2\n        /* \"#utility.yul\":7837:7843   */\n      dup6\n        /* \"#utility.yul\":7773:7851   */\n      tag_135\n      jump\t// in\n    tag_258:\n        /* \"#utility.yul\":7765:7851   */\n      swap1\n      pop\n        /* \"#utility.yul\":7861:7946   */\n      tag_259\n        /* \"#utility.yul\":7942:7944   */\n      0x40\n        /* \"#utility.yul\":7931:7940   */\n      dup4\n        /* \"#utility.yul\":7927:7945   */\n      add\n        /* \"#utility.yul\":7918:7924   */\n      dup5\n        /* \"#utility.yul\":7861:7946   */\n      tag_140\n      jump\t// in\n    tag_259:\n        /* \"#utility.yul\":7394:7953   */\n      swap5\n      swap4\n      pop\n      pop\n      pop\n      pop\n      jump\t// out\n        /* \"#utility.yul\":7959:8073   */\n    tag_141:\n        /* \"#utility.yul\":8047:8048   */\n      0x03\n        /* \"#utility.yul\":8040:8045   */\n      dup2\n        /* \"#utility.yul\":8037:8049   */\n      lt\n        /* \"#utility.yul\":8027:8067   */\n      tag_261\n      jumpi\n        /* \"#utility.yul\":8063:8064   */\n      0x00\n        /* \"#utility.yul\":8060:8061   */\n      dup1\n        /* \"#utility.yul\":8053:8065   */\n      revert\n        /* \"#utility.yul\":8027:8067   */\n    tag_261:\n        /* \"#utility.yul\":7959:8073   */\n      pop\n      jump\t// out\n        /* \"#utility.yul\":8079:8248   */\n    tag_142:\n        /* \"#utility.yul\":8140:8145   */\n      0x00\n        /* \"#utility.yul\":8178:8184   */\n      dup2\n        /* \"#utility.yul\":8165:8185   */\n      calldataload\n        /* \"#utility.yul\":8156:8185   */\n      swap1\n      pop\n        /* \"#utility.yul\":8194:8242   */\n      tag_263\n        /* \"#utility.yul\":8236:8241   */\n      dup2\n        /* \"#utility.yul\":8194:8242   */\n      tag_141\n      jump\t// in\n    tag_263:\n        /* \"#utility.yul\":8079:8248   */\n      swap3\n      swap2\n      pop\n      pop\n      jump\t// out\n        /* \"#utility.yul\":8254:8758   */\n    tag_32:\n        /* \"#utility.yul\":8337:8343   */\n      0x00\n        /* \"#utility.yul\":8345:8351   */\n      dup1\n        /* \"#utility.yul\":8394:8396   */\n      0x40\n        /* \"#utility.yul\":8382:8391   */\n      dup4\n        /* \"#utility.yul\":8373:8380   */\n      dup6\n        /* \"#utility.yul\":8369:8392   */\n      sub\n        /* \"#utility.yul\":8365:8397   */\n      slt\n        /* \"#utility.yul\":8362:8481   */\n      iszero\n      tag_265\n      jumpi\n        /* \"#utility.yul\":8400:8479   */\n      tag_266\n      tag_112\n      jump\t// in\n    tag_266:\n        /* \"#utility.yul\":8362:8481   */\n    tag_265:\n        /* \"#utility.yul\":8520:8521   */\n      0x00\n        /* \"#utility.yul\":8545:8598   */\n      tag_267\n        /* \"#utility.yul\":8590:8597   */\n      dup6\n        /* \"#utility.yul\":8581:8587   */\n      dup3\n        /* \"#utility.yul\":8570:8579   */\n      dup7\n        /* \"#utility.yul\":8566:8588   */\n      add\n        /* \"#utility.yul\":8545:8598   */\n      tag_116\n      jump\t// in\n    tag_267:\n        /* \"#utility.yul\":8535:8598   */\n      swap3\n      pop\n        /* \"#utility.yul\":8491:8608   */\n      pop\n        /* \"#utility.yul\":8647:8649   */\n      0x20\n        /* \"#utility.yul\":8673:8741   */\n      tag_268\n        /* \"#utility.yul\":8733:8740   */\n      dup6\n        /* \"#utility.yul\":8724:8730   */\n      dup3\n        /* \"#utility.yul\":8713:8722   */\n      dup7\n        /* \"#utility.yul\":8709:8731   */\n      add\n        /* \"#utility.yul\":8673:8741   */\n      tag_142\n      jump\t// in\n    tag_268:\n        /* \"#utility.yul\":8663:8741   */\n      swap2\n      pop\n        /* \"#utility.yul\":8618:8751   */\n      pop\n        /* \"#utility.yul\":8254:8758   */\n      swap3\n      pop\n      swap3\n      swap1\n      pop\n      jump\t// out\n        /* \"#utility.yul\":8764:8986   */\n    tag_38:\n        /* \"#utility.yul\":8857:8861   */\n      0x00\n        /* \"#utility.yul\":8895:8897   */\n      0x20\n        /* \"#utility.yul\":8884:8893   */\n      dup3\n        /* \"#utility.yul\":8880:8898   */\n      add\n        /* \"#utility.yul\":8872:8898   */\n      swap1\n      pop\n        /* \"#utility.yul\":8908:8979   */\n      tag_270\n        /* \"#utility.yul\":8976:8977   */\n      0x00\n        /* \"#utility.yul\":8965:8974   */\n      dup4\n        /* \"#utility.yul\":8961:8978   */\n      add\n        /* \"#utility.yul\":8952:8958   */\n      dup5\n        /* \"#utility.yul\":8908:8979   */\n      tag_136\n      jump\t// in\n    tag_270:\n        /* \"#utility.yul\":8764:8986   */\n      swap3\n      swap2\n      pop\n      pop\n      jump\t// out\n        /* \"#utility.yul\":8992:9172   */\n    tag_143:\n        /* \"#utility.yul\":9132:9164   */\n      0x596f7520617265206e6f742074686520636f6e7472616374206f776e65720000\n        /* \"#utility.yul\":9128:9129   */\n      0x00\n        /* \"#utility.yul\":9120:9126   */\n      dup3\n        /* \"#utility.yul\":9116:9130   */\n      add\n        /* \"#utility.yul\":9109:9165   */\n      mstore\n        /* \"#utility.yul\":8992:9172   */\n      pop\n      jump\t// out\n        /* \"#utility.yul\":9178:9544   */\n    tag_144:\n        /* \"#utility.yul\":9320:9323   */\n      0x00\n        /* \"#utility.yul\":9341:9408   */\n      tag_273\n        /* \"#utility.yul\":9405:9407   */\n      0x1e\n        /* \"#utility.yul\":9400:9403   */\n      dup4\n        /* \"#utility.yul\":9341:9408   */\n      tag_133\n      jump\t// in\n    tag_273:\n        /* \"#utility.yul\":9334:9408   */\n      swap2\n      pop\n        /* \"#utility.yul\":9417:9510   */\n      tag_274\n        /* \"#utility.yul\":9506:9509   */\n      dup3\n        /* \"#utility.yul\":9417:9510   */\n      tag_143\n      jump\t// in\n    tag_274:\n        /* \"#utility.yul\":9535:9537   */\n      0x20\n        /* \"#utility.yul\":9530:9533   */\n      dup3\n        /* \"#utility.yul\":9526:9538   */\n      add\n        /* \"#utility.yul\":9519:9538   */\n      swap1\n      pop\n        /* \"#utility.yul\":9178:9544   */\n      swap2\n      swap1\n      pop\n      jump\t// out\n        /* \"#utility.yul\":9550:9969   */\n    tag_45:\n        /* \"#utility.yul\":9716:9720   */\n      0x00\n        /* \"#utility.yul\":9754:9756   */\n      0x20\n        /* \"#utility.yul\":9743:9752   */\n      dup3\n        /* \"#utility.yul\":9739:9757   */\n      add\n        /* \"#utility.yul\":9731:9757   */\n      swap1\n      pop\n        /* \"#utility.yul\":9803:9812   */\n      dup2\n        /* \"#utility.yul\":9797:9801   */\n      dup2\n        /* \"#utility.yul\":9793:9813   */\n      sub\n        /* \"#utility.yul\":9789:9790   */\n      0x00\n        /* \"#utility.yul\":9778:9787   */\n      dup4\n        /* \"#utility.yul\":9774:9791   */\n      add\n        /* \"#utility.yul\":9767:9814   */\n      mstore\n        /* \"#utility.yul\":9831:9962   */\n      tag_276\n        /* \"#utility.yul\":9957:9961   */\n      dup2\n        /* \"#utility.yul\":9831:9962   */\n      tag_144\n      jump\t// in\n    tag_276:\n        /* \"#utility.yul\":9823:9962   */\n      swap1\n      pop\n        /* \"#utility.yul\":9550:9969   */\n      swap2\n      swap1\n      pop\n      jump\t// out\n        /* \"#utility.yul\":9975:10155   */\n    tag_145:\n        /* \"#utility.yul\":10023:10100   */\n      0x4e487b7100000000000000000000000000000000000000000000000000000000\n        /* \"#utility.yul\":10020:10021   */\n      0x00\n        /* \"#utility.yul\":10013:10101   */\n      mstore\n        /* \"#utility.yul\":10120:10124   */\n      0x22\n        /* \"#utility.yul\":10117:10118   */\n      0x04\n        /* \"#utility.yul\":10110:10125   */\n      mstore\n        /* \"#utility.yul\":10144:10148   */\n      0x24\n        /* \"#utility.yul\":10141:10142   */\n      0x00\n        /* \"#utility.yul\":10134:10149   */\n      revert\n        /* \"#utility.yul\":10161:10481   */\n    tag_84:\n        /* \"#utility.yul\":10205:10211   */\n      0x00\n        /* \"#utility.yul\":10242:10243   */\n      0x02\n        /* \"#utility.yul\":10236:10240   */\n      dup3\n        /* \"#utility.yul\":10232:10244   */\n      div\n        /* \"#utility.yul\":10222:10244   */\n      swap1\n      pop\n        /* \"#utility.yul\":10289:10290   */\n      0x01\n        /* \"#utility.yul\":10283:10287   */\n      dup3\n        /* \"#utility.yul\":10279:10291   */\n      and\n        /* \"#utility.yul\":10310:10328   */\n      dup1\n        /* \"#utility.yul\":10300:10381   */\n      tag_279\n      jumpi\n        /* \"#utility.yul\":10366:10370   */\n      0x7f\n        /* \"#utility.yul\":10358:10364   */\n      dup3\n        /* \"#utility.yul\":10354:10371   */\n      and\n        /* \"#utility.yul\":10344:10371   */\n      swap2\n      pop\n        /* \"#utility.yul\":10300:10381   */\n    tag_279:\n        /* \"#utility.yul\":10428:10430   */\n      0x20\n        /* \"#utility.yul\":10420:10426   */\n      dup3\n        /* \"#utility.yul\":10417:10431   */\n      lt\n        /* \"#utility.yul\":10397:10415   */\n      dup2\n        /* \"#utility.yul\":10394:10432   */\n      sub\n        /* \"#utility.yul\":10391:10475   */\n      tag_280\n      jumpi\n        /* \"#utility.yul\":10447:10465   */\n      tag_281\n      tag_145\n      jump\t// in\n    tag_281:\n        /* \"#utility.yul\":10391:10475   */\n    tag_280:\n        /* \"#utility.yul\":10212:10481   */\n      pop\n        /* \"#utility.yul\":10161:10481   */\n      swap2\n      swap1\n      pop\n      jump\t// out\n        /* \"#utility.yul\":10487:10628   */\n    tag_146:\n        /* \"#utility.yul\":10536:10540   */\n      0x00\n        /* \"#utility.yul\":10559:10562   */\n      dup2\n        /* \"#utility.yul\":10551:10562   */\n      swap1\n      pop\n        /* \"#utility.yul\":10582:10585   */\n      dup2\n        /* \"#utility.yul\":10579:10580   */\n      0x00\n        /* \"#utility.yul\":10572:10586   */\n      mstore\n        /* \"#utility.yul\":10616:10620   */\n      0x20\n        /* \"#utility.yul\":10613:10614   */\n      0x00\n        /* \"#utility.yul\":10603:10621   */\n      keccak256\n        /* \"#utility.yul\":10595:10621   */\n      swap1\n      pop\n        /* \"#utility.yul\":10487:10628   */\n      swap2\n      swap1\n      pop\n      jump\t// out\n        /* \"#utility.yul\":10634:10727   */\n    tag_147:\n        /* \"#utility.yul\":10671:10677   */\n      0x00\n        /* \"#utility.yul\":10718:10720   */\n      0x20\n        /* \"#utility.yul\":10713:10715   */\n      0x1f\n        /* \"#utility.yul\":10706:10711   */\n      dup4\n        /* \"#utility.yul\":10702:10716   */\n      add\n        /* \"#utility.yul\":10698:10721   */\n      div\n        /* \"#utility.yul\":10688:10721   */\n      swap1\n      pop\n        /* \"#utility.yul\":10634:10727   */\n      swap2\n      swap1\n      pop\n      jump\t// out\n        /* \"#utility.yul\":10733:10840   */\n    tag_148:\n        /* \"#utility.yul\":10777:10785   */\n      0x00\n        /* \"#utility.yul\":10827:10832   */\n      dup3\n        /* \"#utility.yul\":10821:10825   */\n      dup3\n        /* \"#utility.yul\":10817:10833   */\n      shl\n        /* \"#utility.yul\":10796:10833   */\n      swap1\n      pop\n        /* \"#utility.yul\":10733:10840   */\n      swap3\n      swap2\n      pop\n      pop\n      jump\t// out\n        /* \"#utility.yul\":10846:11239   */\n    tag_149:\n        /* \"#utility.yul\":10915:10921   */\n      0x00\n        /* \"#utility.yul\":10965:10966   */\n      0x08\n        /* \"#utility.yul\":10953:10963   */\n      dup4\n        /* \"#utility.yul\":10949:10967   */\n      mul\n        /* \"#utility.yul\":10988:11085   */\n      tag_286\n        /* \"#utility.yul\":11018:11084   */\n      0xffffffffffffffffffffffffffffffffffffffffffffffffffffffffffffffff\n        /* \"#utility.yul\":11007:11016   */\n      dup3\n        /* \"#utility.yul\":10988:11085   */\n      tag_148\n      jump\t// in\n    tag_286:\n        /* \"#utility.yul\":11106:11145   */\n      tag_287\n        /* \"#utility.yul\":11136:11144   */\n      dup7\n        /* \"#utility.yul\":11125:11134   */\n      dup4\n        /* \"#utility.yul\":11106:11145   */\n      tag_148\n      jump\t// in\n    tag_287:\n        /* \"#utility.yul\":11094:11145   */\n      swap6\n      pop\n        /* \"#utility.yul\":11178:11182   */\n      dup1\n        /* \"#utility.yul\":11174:11183   */\n      not\n        /* \"#utility.yul\":11167:11172   */\n      dup5\n        /* \"#utility.yul\":11163:11184   */\n      and\n        /* \"#utility.yul\":11154:11184   */\n      swap4\n      pop\n        /* \"#utility.yul\":11227:11231   */\n      dup1\n        /* \"#utility.yul\":11217:11225   */\n      dup7\n        /* \"#utility.yul\":11213:11232   */\n      and\n        /* \"#utility.yul\":11206:11211   */\n      dup5\n        /* \"#utility.yul\":11203:11233   */\n      or\n        /* \"#utility.yul\":11193:11233   */\n      swap3\n      pop\n        /* \"#utility.yul\":10922:11239   */\n      pop\n      pop\n        /* \"#utility.yul\":10846:11239   */\n      swap4\n      swap3\n      pop\n      pop\n      pop\n      jump\t// out\n        /* \"#utility.yul\":11245:11305   */\n    tag_150:\n        /* \"#utility.yul\":11273:11276   */\n      0x00\n        /* \"#utility.yul\":11294:11299   */\n      dup2\n        /* \"#utility.yul\":11287:11299   */\n      swap1\n      pop\n        /* \"#utility.yul\":11245:11305   */\n      swap2\n      swap1\n      pop\n      jump\t// out\n        /* \"#utility.yul\":11311:11453   */\n    tag_151:\n        /* \"#utility.yul\":11361:11370   */\n      0x00\n        /* \"#utility.yul\":11394:11447   */\n      tag_290\n        /* \"#utility.yul\":11412:11446   */\n      tag_291\n        /* \"#utility.yul\":11421:11445   */\n      tag_292\n        /* \"#utility.yul\":11439:11444   */\n      dup5\n        /* \"#utility.yul\":11421:11445   */\n      tag_114\n      jump\t// in\n    tag_292:\n        /* \"#utility.yul\":11412:11446   */\n      tag_150\n      jump\t// in\n    tag_291:\n        /* \"#utility.yul\":11394:11447   */\n      tag_114\n      jump\t// in\n    tag_290:\n        /* \"#utility.yul\":11381:11447   */\n      swap1\n      pop\n        /* \"#utility.yul\":11311:11453   */\n      swap2\n      swap1\n      pop\n      jump\t// out\n        /* \"#utility.yul\":11459:11534   */\n    tag_152:\n        /* \"#utility.yul\":11502:11505   */\n      0x00\n        /* \"#utility.yul\":11523:11528   */\n      dup2\n        /* \"#utility.yul\":11516:11528   */\n      swap1\n      pop\n        /* \"#utility.yul\":11459:11534   */\n      swap2\n      swap1\n      pop\n      jump\t// out\n        /* \"#utility.yul\":11540:11809   */\n    tag_153:\n        /* \"#utility.yul\":11650:11689   */\n      tag_295\n        /* \"#utility.yul\":11681:11688   */\n      dup4\n        /* \"#utility.yul\":11650:11689   */\n      tag_151\n      jump\t// in\n    tag_295:\n        /* \"#utility.yul\":11711:11802   */\n      tag_296\n        /* \"#utility.yul\":11760:11801   */\n      tag_297\n        /* \"#utility.yul\":11784:11800   */\n      dup3\n        /* \"#utility.yul\":11760:11801   */\n      tag_152\n      jump\t// in\n    tag_297:\n        /* \"#utility.yul\":11752:11758   */\n      dup5\n        /* \"#utility.yul\":11745:11749   */\n      dup5\n        /* \"#utility.yul\":11739:11750   */\n      sload\n        /* \"#utility.yul\":11711:11802   */\n      tag_149\n      jump\t// in\n    tag_296:\n        /* \"#utility.yul\":11705:11709   */\n      dup3\n        /* \"#utility.yul\":11698:11803   */\n      sstore\n        /* \"#utility.yul\":11616:11809   */\n      pop\n        /* \"#utility.yul\":11540:11809   */\n      pop\n      pop\n      pop\n      jump\t// out\n        /* \"#utility.yul\":11815:11888   */\n    tag_154:\n        /* \"#utility.yul\":11860:11863   */\n      0x00\n        /* \"#utility.yul\":11815:11888   */\n      swap1\n      jump\t// out\n        /* \"#utility.yul\":11894:12083   */\n    tag_155:\n        /* \"#utility.yul\":11971:12003   */\n      tag_300\n      tag_154\n      jump\t// in\n    tag_300:\n        /* \"#utility.yul\":12012:12077   */\n      tag_301\n        /* \"#utility.yul\":12070:12076   */\n      dup2\n        /* \"#utility.yul\":12062:12068   */\n      dup5\n        /* \"#utility.yul\":12056:12060   */\n      dup5\n        /* \"#utility.yul\":12012:12077   */\n      tag_153\n      jump\t// in\n    tag_301:\n        /* \"#utility.yul\":11947:12083   */\n      pop\n        /* \"#utility.yul\":11894:12083   */\n      pop\n      pop\n      jump\t// out\n        /* \"#utility.yul\":12089:12275   */\n    tag_156:\n        /* \"#utility.yul\":12149:12269   */\n    tag_303:\n        /* \"#utility.yul\":12166:12169   */\n      dup2\n        /* \"#utility.yul\":12159:12164   */\n      dup2\n        /* \"#utility.yul\":12156:12170   */\n      lt\n        /* \"#utility.yul\":12149:12269   */\n      iszero\n      tag_305\n      jumpi\n        /* \"#utility.yul\":12220:12259   */\n      tag_306\n        /* \"#utility.yul\":12257:12258   */\n      0x00\n        /* \"#utility.yul\":12250:12255   */\n      dup3\n        /* \"#utility.yul\":12220:12259   */\n      tag_155\n      jump\t// in\n    tag_306:\n        /* \"#utility.yul\":12193:12194   */\n      0x01\n        /* \"#utility.yul\":12186:12191   */\n      dup2\n        /* \"#utility.yul\":12182:12195   */\n      add\n        /* \"#utility.yul\":12173:12195   */\n      swap1\n      pop\n        /* \"#utility.yul\":12149:12269   */\n      jump(tag_303)\n    tag_305:\n        /* \"#utility.yul\":12089:12275   */\n      pop\n      pop\n      jump\t// out\n        /* \"#utility.yul\":12281:12824   */\n    tag_157:\n        /* \"#utility.yul\":12382:12384   */\n      0x1f\n        /* \"#utility.yul\":12377:12380   */\n      dup3\n        /* \"#utility.yul\":12374:12385   */\n      gt\n        /* \"#utility.yul\":12371:12817   */\n      iszero\n      tag_308\n      jumpi\n        /* \"#utility.yul\":12416:12454   */\n      tag_309\n        /* \"#utility.yul\":12448:12453   */\n      dup2\n        /* \"#utility.yul\":12416:12454   */\n      tag_146\n      jump\t// in\n    tag_309:\n        /* \"#utility.yul\":12500:12529   */\n      tag_310\n        /* \"#utility.yul\":12518:12528   */\n      dup5\n        /* \"#utility.yul\":12500:12529   */\n      tag_147\n      jump\t// in\n    tag_310:\n        /* \"#utility.yul\":12490:12498   */\n      dup2\n        /* \"#utility.yul\":12486:12530   */\n      add\n        /* \"#utility.yul\":12683:12685   */\n      0x20\n        /* \"#utility.yul\":12671:12681   */\n      dup6\n        /* \"#utility.yul\":12668:12686   */\n      lt\n        /* \"#utility.yul\":12665:12714   */\n      iszero\n      tag_311\n      jumpi\n        /* \"#utility.yul\":12704:12712   */\n      dup2\n        /* \"#utility.yul\":12689:12712   */\n      swap1\n      pop\n        /* \"#utility.yul\":12665:12714   */\n    tag_311:\n        /* \"#utility.yul\":12727:12807   */\n      tag_312\n        /* \"#utility.yul\":12783:12805   */\n      tag_313\n        /* \"#utility.yul\":12801:12804   */\n      dup6\n        /* \"#utility.yul\":12783:12805   */\n      tag_147\n      jump\t// in\n    tag_313:\n        /* \"#utility.yul\":12773:12781   */\n      dup4\n        /* \"#utility.yul\":12769:12806   */\n      add\n        /* \"#utility.yul\":12756:12767   */\n      dup3\n        /* \"#utility.yul\":12727:12807   */\n      tag_156\n      jump\t// in\n    tag_312:\n        /* \"#utility.yul\":12386:12817   */\n      pop\n      pop\n        /* \"#utility.yul\":12371:12817   */\n    tag_308:\n        /* \"#utility.yul\":12281:12824   */\n      pop\n      pop\n      pop\n      jump\t// out\n        /* \"#utility.yul\":12830:12947   */\n    tag_158:\n        /* \"#utility.yul\":12884:12892   */\n      0x00\n        /* \"#utility.yul\":12934:12939   */\n      dup3\n        /* \"#utility.yul\":12928:12932   */\n      dup3\n        /* \"#utility.yul\":12924:12940   */\n      shr\n        /* \"#utility.yul\":12903:12940   */\n      swap1\n      pop\n        /* \"#utility.yul\":12830:12947   */\n      swap3\n      swap2\n      pop\n      pop\n      jump\t// out\n        /* \"#utility.yul\":12953:13122   */\n    tag_159:\n        /* \"#utility.yul\":12997:13003   */\n      0x00\n        /* \"#utility.yul\":13030:13081   */\n      tag_316\n        /* \"#utility.yul\":13078:13079   */\n      0x00\n        /* \"#utility.yul\":13074:13080   */\n      not\n        /* \"#utility.yul\":13066:13071   */\n      dup5\n        /* \"#utility.yul\":13063:13064   */\n      0x08\n        /* \"#utility.yul\":13059:13072   */\n      mul\n        /* \"#utility.yul\":13030:13081   */\n      tag_158\n      jump\t// in\n    tag_316:\n        /* \"#utility.yul\":13026:13082   */\n      not\n        /* \"#utility.yul\":13111:13115   */\n      dup1\n        /* \"#utility.yul\":13105:13109   */\n      dup4\n        /* \"#utility.yul\":13101:13116   */\n      and\n        /* \"#utility.yul\":13091:13116   */\n      swap2\n      pop\n        /* \"#utility.yul\":13004:13122   */\n      pop\n        /* \"#utility.yul\":12953:13122   */\n      swap3\n      swap2\n      pop\n      pop\n      jump\t// out\n        /* \"#utility.yul\":13127:13422   */\n    tag_160:\n        /* \"#utility.yul\":13203:13207   */\n      0x00\n        /* \"#utility.yul\":13349:13378   */\n      tag_318\n        /* \"#utility.yul\":13374:13377   */\n      dup4\n        /* \"#utility.yul\":13368:13372   */\n      dup4\n        /* \"#utility.yul\":13349:13378   */\n      tag_159\n      jump\t// in\n    tag_318:\n        /* \"#utility.yul\":13341:13378   */\n      swap2\n      pop\n        /* \"#utility.yul\":13411:13414   */\n      dup3\n        /* \"#utility.yul\":13408:13409   */\n      0x02\n        /* \"#utility.yul\":13404:13415   */\n      mul\n        /* \"#utility.yul\":13398:13402   */\n      dup3\n        /* \"#utility.yul\":13395:13416   */\n      or\n        /* \"#utility.yul\":13387:13416   */\n      swap1\n      pop\n        /* \"#utility.yul\":13127:13422   */\n      swap3\n      swap2\n      pop\n      pop\n      jump\t// out\n        /* \"#utility.yul\":13427:14822   */\n    tag_52:\n        /* \"#utility.yul\":13544:13581   */\n      tag_320\n        /* \"#utility.yul\":13577:13580   */\n      dup3\n        /* \"#utility.yul\":13544:13581   */\n      tag_132\n      jump\t// in\n    tag_320:\n        /* \"#utility.yul\":13646:13664   */\n      0xffffffffffffffff\n        /* \"#utility.yul\":13638:13644   */\n      dup2\n        /* \"#utility.yul\":13635:13665   */\n      gt\n        /* \"#utility.yul\":13632:13688   */\n      iszero\n      tag_321\n      jumpi\n        /* \"#utility.yul\":13668:13686   */\n      tag_322\n      tag_120\n      jump\t// in\n    tag_322:\n        /* \"#utility.yul\":13632:13688   */\n    tag_321:\n        /* \"#utility.yul\":13712:13750   */\n      tag_323\n        /* \"#utility.yul\":13744:13748   */\n      dup3\n        /* \"#utility.yul\":13738:13749   */\n      sload\n        /* \"#utility.yul\":13712:13750   */\n      tag_84\n      jump\t// in\n    tag_323:\n        /* \"#utility.yul\":13797:13864   */\n      tag_324\n        /* \"#utility.yul\":13857:13863   */\n      dup3\n        /* \"#utility.yul\":13849:13855   */\n      dup3\n        /* \"#utility.yul\":13843:13847   */\n      dup6\n        /* \"#utility.yul\":13797:13864   */\n      tag_157\n      jump\t// in\n    tag_324:\n        /* \"#utility.yul\":13891:13892   */\n      0x00\n        /* \"#utility.yul\":13915:13919   */\n      0x20\n        /* \"#utility.yul\":13902:13919   */\n      swap1\n      pop\n        /* \"#utility.yul\":13947:13949   */\n      0x1f\n        /* \"#utility.yul\":13939:13945   */\n      dup4\n        /* \"#utility.yul\":13936:13950   */\n      gt\n        /* \"#utility.yul\":13964:13965   */\n      0x01\n        /* \"#utility.yul\":13959:14577   */\n      dup2\n      eq\n      tag_326\n      jumpi\n        /* \"#utility.yul\":14621:14622   */\n      0x00\n        /* \"#utility.yul\":14638:14644   */\n      dup5\n        /* \"#utility.yul\":14635:14712   */\n      iszero\n      tag_327\n      jumpi\n        /* \"#utility.yul\":14687:14696   */\n      dup3\n        /* \"#utility.yul\":14682:14685   */\n      dup8\n        /* \"#utility.yul\":14678:14697   */\n      add\n        /* \"#utility.yul\":14672:14698   */\n      mload\n        /* \"#utility.yul\":14663:14698   */\n      swap1\n      pop\n        /* \"#utility.yul\":14635:14712   */\n    tag_327:\n        /* \"#utility.yul\":14738:14805   */\n      tag_328\n        /* \"#utility.yul\":14798:14804   */\n      dup6\n        /* \"#utility.yul\":14791:14796   */\n      dup3\n        /* \"#utility.yul\":14738:14805   */\n      tag_160\n      jump\t// in\n    tag_328:\n        /* \"#utility.yul\":14732:14736   */\n      dup7\n        /* \"#utility.yul\":14725:14806   */\n      sstore\n        /* \"#utility.yul\":14594:14816   */\n      pop\n        /* \"#utility.yul\":13929:14816   */\n      jump(tag_325)\n        /* \"#utility.yul\":13959:14577   */\n    tag_326:\n        /* \"#utility.yul\":14011:14015   */\n      0x1f\n        /* \"#utility.yul\":14007:14016   */\n      not\n        /* \"#utility.yul\":13999:14005   */\n      dup5\n        /* \"#utility.yul\":13995:14017   */\n      and\n        /* \"#utility.yul\":14045:14082   */\n      tag_329\n        /* \"#utility.yul\":14077:14081   */\n      dup7\n        /* \"#utility.yul\":14045:14082   */\n      tag_146\n      jump\t// in\n    tag_329:\n        /* \"#utility.yul\":14104:14105   */\n      0x00\n        /* \"#utility.yul\":14118:14326   */\n    tag_330:\n        /* \"#utility.yul\":14132:14139   */\n      dup3\n        /* \"#utility.yul\":14129:14130   */\n      dup2\n        /* \"#utility.yul\":14126:14140   */\n      lt\n        /* \"#utility.yul\":14118:14326   */\n      iszero\n      tag_332\n      jumpi\n        /* \"#utility.yul\":14211:14220   */\n      dup5\n        /* \"#utility.yul\":14206:14209   */\n      dup10\n        /* \"#utility.yul\":14202:14221   */\n      add\n        /* \"#utility.yul\":14196:14222   */\n      mload\n        /* \"#utility.yul\":14188:14194   */\n      dup3\n        /* \"#utility.yul\":14181:14223   */\n      sstore\n        /* \"#utility.yul\":14262:14263   */\n      0x01\n        /* \"#utility.yul\":14254:14260   */\n      dup3\n        /* \"#utility.yul\":14250:14264   */\n      add\n        /* \"#utility.yul\":14240:14264   */\n      swap2\n      pop\n        /* \"#utility.yul\":14309:14311   */\n      0x20\n        /* \"#utility.yul\":14298:14307   */\n      dup6\n        /* \"#utility.yul\":14294:14312   */\n      add\n        /* \"#utility.yul\":14281:14312   */\n      swap5\n      pop\n        /* \"#utility.yul\":14155:14159   */\n      0x20\n        /* \"#utility.yul\":14152:14153   */\n      dup2\n        /* \"#utility.yul\":14148:14160   */\n      add\n        /* \"#utility.yul\":14143:14160   */\n      swap1\n      pop\n        /* \"#utility.yul\":14118:14326   */\n      jump(tag_330)\n    tag_332:\n        /* \"#utility.yul\":14354:14360   */\n      dup7\n        /* \"#utility.yul\":14345:14352   */\n      dup4\n        /* \"#utility.yul\":14342:14361   */\n      lt\n        /* \"#utility.yul\":14339:14518   */\n      iszero\n      tag_333\n      jumpi\n        /* \"#utility.yul\":14412:14421   */\n      dup5\n        /* \"#utility.yul\":14407:14410   */\n      dup10\n        /* \"#utility.yul\":14403:14422   */\n      add\n        /* \"#utility.yul\":14397:14423   */\n      mload\n        /* \"#utility.yul\":14455:14503   */\n      tag_334\n        /* \"#utility.yul\":14497:14501   */\n      0x1f\n        /* \"#utility.yul\":14489:14495   */\n      dup10\n        /* \"#utility.yul\":14485:14502   */\n      and\n        /* \"#utility.yul\":14474:14483   */\n      dup3\n        /* \"#utility.yul\":14455:14503   */\n      tag_159\n      jump\t// in\n    tag_334:\n        /* \"#utility.yul\":14447:14453   */\n      dup4\n        /* \"#utility.yul\":14440:14504   */\n      sstore\n        /* \"#utility.yul\":14362:14518   */\n      pop\n        /* \"#utility.yul\":14339:14518   */\n    tag_333:\n        /* \"#utility.yul\":14564:14565   */\n      0x01\n        /* \"#utility.yul\":14560:14561   */\n      0x02\n        /* \"#utility.yul\":14552:14558   */\n      dup9\n        /* \"#utility.yul\":14548:14562   */\n      mul\n        /* \"#utility.yul\":14544:14566   */\n      add\n        /* \"#utility.yul\":14538:14542   */\n      dup9\n        /* \"#utility.yul\":14531:14567   */\n      sstore\n        /* \"#utility.yul\":13966:14577   */\n      pop\n      pop\n      pop\n        /* \"#utility.yul\":13929:14816   */\n    tag_325:\n      pop\n        /* \"#utility.yul\":13519:14822   */\n      pop\n      pop\n      pop\n        /* \"#utility.yul\":13427:14822   */\n      pop\n      pop\n      jump\t// out\n        /* \"#utility.yul\":14828:15007   */\n    tag_161:\n        /* \"#utility.yul\":14968:14999   */\n      0x596f7520617265206e6f74207468652070726f64756374206f776e6572000000\n        /* \"#utility.yul\":14964:14965   */\n      0x00\n        /* \"#utility.yul\":14956:14962   */\n      dup3\n        /* \"#utility.yul\":14952:14966   */\n      add\n        /* \"#utility.yul\":14945:15000   */\n      mstore\n        /* \"#utility.yul\":14828:15007   */\n      pop\n      jump\t// out\n        /* \"#utility.yul\":15013:15379   */\n    tag_162:\n        /* \"#utility.yul\":15155:15158   */\n      0x00\n        /* \"#utility.yul\":15176:15243   */\n      tag_337\n        /* \"#utility.yul\":15240:15242   */\n      0x1d\n        /* \"#utility.yul\":15235:15238   */\n      dup4\n        /* \"#utility.yul\":15176:15243   */\n      tag_133\n      jump\t// in\n    tag_337:\n        /* \"#utility.yul\":15169:15243   */\n      swap2\n      pop\n        /* \"#utility.yul\":15252:15345   */\n      tag_338\n        /* \"#utility.yul\":15341:15344   */\n      dup3\n        /* \"#utility.yul\":15252:15345   */\n      tag_161\n      jump\t// in\n    tag_338:\n        /* \"#utility.yul\":15370:15372   */\n      0x20\n        /* \"#utility.yul\":15365:15368   */\n      dup3\n        /* \"#utility.yul\":15361:15373   */\n      add\n        /* \"#utility.yul\":15354:15373   */\n      swap1\n      pop\n        /* \"#utility.yul\":15013:15379   */\n      swap2\n      swap1\n      pop\n      jump\t// out\n        /* \"#utility.yul\":15385:15804   */\n    tag_58:\n        /* \"#utility.yul\":15551:15555   */\n      0x00\n        /* \"#utility.yul\":15589:15591   */\n      0x20\n        /* \"#utility.yul\":15578:15587   */\n      dup3\n        /* \"#utility.yul\":15574:15592   */\n      add\n        /* \"#utility.yul\":15566:15592   */\n      swap1\n      pop\n        /* \"#utility.yul\":15638:15647   */\n      dup2\n        /* \"#utility.yul\":15632:15636   */\n      dup2\n        /* \"#utility.yul\":15628:15648   */\n      sub\n        /* \"#utility.yul\":15624:15625   */\n      0x00\n        /* \"#utility.yul\":15613:15622   */\n      dup4\n        /* \"#utility.yul\":15609:15626   */\n      add\n        /* \"#utility.yul\":15602:15649   */\n      mstore\n        /* \"#utility.yul\":15666:15797   */\n      tag_340\n        /* \"#utility.yul\":15792:15796   */\n      dup2\n        /* \"#utility.yul\":15666:15797   */\n      tag_162\n      jump\t// in\n    tag_340:\n        /* \"#utility.yul\":15658:15797   */\n      swap1\n      pop\n        /* \"#utility.yul\":15385:15804   */\n      swap2\n      swap1\n      pop\n      jump\t// out\n        /* \"#utility.yul\":15810:15982   */\n    tag_163:\n        /* \"#utility.yul\":15950:15974   */\n      0x50726f6475637420646f6573206e6f7420657869737400000000000000000000\n        /* \"#utility.yul\":15946:15947   */\n      0x00\n        /* \"#utility.yul\":15938:15944   */\n      dup3\n        /* \"#utility.yul\":15934:15948   */\n      add\n        /* \"#utility.yul\":15927:15975   */\n      mstore\n        /* \"#utility.yul\":15810:15982   */\n      pop\n      jump\t// out\n        /* \"#utility.yul\":15988:16354   */\n    tag_164:\n        /* \"#utility.yul\":16130:16133   */\n      0x00\n        /* \"#utility.yul\":16151:16218   */\n      tag_343\n        /* \"#utility.yul\":16215:16217   */\n      0x16\n        /* \"#utility.yul\":16210:16213   */\n      dup4\n        /* \"#utility.yul\":16151:16218   */\n      tag_133\n      jump\t// in\n    tag_343:\n        /* \"#utility.yul\":16144:16218   */\n      swap2\n      pop\n        /* \"#utility.yul\":16227:16320   */\n      tag_344\n        /* \"#utility.yul\":16316:16319   */\n      dup3\n        /* \"#utility.yul\":16227:16320   */\n      tag_163\n      jump\t// in\n    tag_344:\n        /* \"#utility.yul\":16345:16347   */\n      0x20\n        /* \"#utility.yul\":16340:16343   */\n      dup3\n        /* \"#utility.yul\":16336:16348   */\n      add\n        /* \"#utility.yul\":16329:16348   */\n      swap1\n      pop\n        /* \"#utility.yul\":15988:16354   */\n      swap2\n      swap1\n      pop\n      jump\t// out\n        /* \"#utility.yul\":16360:16779   */\n    tag_62:\n        /* \"#utility.yul\":16526:16530   */\n      0x00\n        /* \"#utility.yul\":16564:16566   */\n      0x20\n        /* \"#utility.yul\":16553:16562   */\n      dup3\n        /* \"#utility.yul\":16549:16567   */\n      add\n        /* \"#utility.yul\":16541:16567   */\n      swap1\n      pop\n        /* \"#utility.yul\":16613:16622   */\n      dup2\n        /* \"#utility.yul\":16607:16611   */\n      dup2\n        /* \"#utility.yul\":16603:16623   */\n      sub\n        /* \"#utility.yul\":16599:16600   */\n      0x00\n        /* \"#utility.yul\":16588:16597   */\n      dup4\n        /* \"#utility.yul\":16584:16601   */\n      add\n        /* \"#utility.yul\":16577:16624   */\n      mstore\n        /* \"#utility.yul\":16641:16772   */\n      tag_346\n        /* \"#utility.yul\":16767:16771   */\n      dup2\n        /* \"#utility.yul\":16641:16772   */\n      tag_164\n      jump\t// in\n    tag_346:\n        /* \"#utility.yul\":16633:16772   */\n      swap1\n      pop\n        /* \"#utility.yul\":16360:16779   */\n      swap2\n      swap1\n      pop\n      jump\t// out\n        /* \"#utility.yul\":16785:16963   */\n    tag_165:\n        /* \"#utility.yul\":16925:16955   */\n      0x506c6561736520656e74657220612076616c6964206164647265737300000000\n        /* \"#utility.yul\":16921:16922   */\n      0x00\n        /* \"#utility.yul\":16913:16919   */\n      dup3\n        /* \"#utility.yul\":16909:16923   */\n      add\n        /* \"#utility.yul\":16902:16956   */\n      mstore\n        /* \"#utility.yul\":16785:16963   */\n      pop\n      jump\t// out\n        /* \"#utility.yul\":16969:17335   */\n    tag_166:\n        /* \"#utility.yul\":17111:17114   */\n      0x00\n        /* \"#utility.yul\":17132:17199   */\n      tag_349\n        /* \"#utility.yul\":17196:17198   */\n      0x1c\n        /* \"#utility.yul\":17191:17194   */\n      dup4\n        /* \"#utility.yul\":17132:17199   */\n      tag_133\n      jump\t// in\n    tag_349:\n        /* \"#utility.yul\":17125:17199   */\n      swap2\n      pop\n        /* \"#utility.yul\":17208:17301   */\n      tag_350\n        /* \"#utility.yul\":17297:17300   */\n      dup3\n        /* \"#utility.yul\":17208:17301   */\n      tag_165\n      jump\t// in\n    tag_350:\n        /* \"#utility.yul\":17326:17328   */\n      0x20\n        /* \"#utility.yul\":17321:17324   */\n      dup3\n        /* \"#utility.yul\":17317:17329   */\n      add\n        /* \"#utility.yul\":17310:17329   */\n      swap1\n      pop\n        /* \"#utility.yul\":16969:17335   */\n      swap2\n      swap1\n      pop\n      jump\t// out\n        /* \"#utility.yul\":17341:17760   */\n    tag_65:\n        /* \"#utility.yul\":17507:17511   */\n      0x00\n        /* \"#utility.yul\":17545:17547   */\n      0x20\n        /* \"#utility.yul\":17534:17543   */\n      dup3\n        /* \"#utility.yul\":17530:17548   */\n      add\n        /* \"#utility.yul\":17522:17548   */\n      swap1\n      pop\n        /* \"#utility.yul\":17594:17603   */\n      dup2\n        /* \"#utility.yul\":17588:17592   */\n      dup2\n        /* \"#utility.yul\":17584:17604   */\n      sub\n        /* \"#utility.yul\":17580:17581   */\n      0x00\n        /* \"#utility.yul\":17569:17578   */\n      dup4\n        /* \"#utility.yul\":17565:17582   */\n      add\n        /* \"#utility.yul\":17558:17605   */\n      mstore\n        /* \"#utility.yul\":17622:17753   */\n      tag_352\n        /* \"#utility.yul\":17748:17752   */\n      dup2\n        /* \"#utility.yul\":17622:17753   */\n      tag_166\n      jump\t// in\n    tag_352:\n        /* \"#utility.yul\":17614:17753   */\n      swap1\n      pop\n        /* \"#utility.yul\":17341:17760   */\n      swap2\n      swap1\n      pop\n      jump\t// out\n        /* \"#utility.yul\":17766:17946   */\n    tag_70:\n        /* \"#utility.yul\":17814:17891   */\n      0x4e487b7100000000000000000000000000000000000000000000000000000000\n        /* \"#utility.yul\":17811:17812   */\n      0x00\n        /* \"#utility.yul\":17804:17892   */\n      mstore\n        /* \"#utility.yul\":17911:17915   */\n      0x32\n        /* \"#utility.yul\":17908:17909   */\n      0x04\n        /* \"#utility.yul\":17901:17916   */\n      mstore\n        /* \"#utility.yul\":17935:17939   */\n      0x24\n        /* \"#utility.yul\":17932:17933   */\n      0x00\n        /* \"#utility.yul\":17925:17940   */\n      revert\n        /* \"#utility.yul\":17952:18187   */\n    tag_167:\n        /* \"#utility.yul\":18092:18126   */\n      0x4f776e6572736869702063616e206f6e6c79206265207472616e736665727265\n        /* \"#utility.yul\":18088:18089   */\n      0x00\n        /* \"#utility.yul\":18080:18086   */\n      dup3\n        /* \"#utility.yul\":18076:18090   */\n      add\n        /* \"#utility.yul\":18069:18127   */\n      mstore\n        /* \"#utility.yul\":18161:18179   */\n      0x642061667465722064656c697665727900000000000000000000000000000000\n        /* \"#utility.yul\":18156:18158   */\n      0x20\n        /* \"#utility.yul\":18148:18154   */\n      dup3\n        /* \"#utility.yul\":18144:18159   */\n      add\n        /* \"#utility.yul\":18137:18180   */\n      mstore\n        /* \"#utility.yul\":17952:18187   */\n      pop\n      jump\t// out\n        /* \"#utility.yul\":18193:18559   */\n    tag_168:\n        /* \"#utility.yul\":18335:18338   */\n      0x00\n        /* \"#utility.yul\":18356:18423   */\n      tag_356\n        /* \"#utility.yul\":18420:18422   */\n      0x30\n        /* \"#utility.yul\":18415:18418   */\n      dup4\n        /* \"#utility.yul\":18356:18423   */\n      tag_133\n      jump\t// in\n    tag_356:\n        /* \"#utility.yul\":18349:18423   */\n      swap2\n      pop\n        /* \"#utility.yul\":18432:18525   */\n      tag_357\n        /* \"#utility.yul\":18521:18524   */\n      dup3\n        /* \"#utility.yul\":18432:18525   */\n      tag_167\n      jump\t// in\n    tag_357:\n        /* \"#utility.yul\":18550:18552   */\n      0x40\n        /* \"#utility.yul\":18545:18548   */\n      dup3\n        /* \"#utility.yul\":18541:18553   */\n      add\n        /* \"#utility.yul\":18534:18553   */\n      swap1\n      pop\n        /* \"#utility.yul\":18193:18559   */\n      swap2\n      swap1\n      pop\n      jump\t// out\n        /* \"#utility.yul\":18565:18984   */\n    tag_76:\n        /* \"#utility.yul\":18731:18735   */\n      0x00\n        /* \"#utility.yul\":18769:18771   */\n      0x20\n        /* \"#utility.yul\":18758:18767   */\n      dup3\n        /* \"#utility.yul\":18754:18772   */\n      add\n        /* \"#utility.yul\":18746:18772   */\n      swap1\n      pop\n        /* \"#utility.yul\":18818:18827   */\n      dup2\n        /* \"#utility.yul\":18812:18816   */\n      dup2\n        /* \"#utility.yul\":18808:18828   */\n      sub\n        /* \"#utility.yul\":18804:18805   */\n      0x00\n        /* \"#utility.yul\":18793:18802   */\n      dup4\n        /* \"#utility.yul\":18789:18806   */\n      add\n        /* \"#utility.yul\":18782:18829   */\n      mstore\n        /* \"#utility.yul\":18846:18977   */\n      tag_359\n        /* \"#utility.yul\":18972:18976   */\n      dup2\n        /* \"#utility.yul\":18846:18977   */\n      tag_168\n      jump\t// in\n    tag_359:\n        /* \"#utility.yul\":18838:18977   */\n      swap1\n      pop\n        /* \"#utility.yul\":18565:18984   */\n      swap2\n      swap1\n      pop\n      jump\t// out\n\n    auxdata: 0xa2646970667358221220304e10bac7fbe38cbd91dc1e67307972149496fe990fdfe1c1bb7f0ec07786cd64736f6c634300081a0033\n}\n",
				"bytecode": {
					"linkReferences": {},
					"object": "6080604052348015600e575f80fd5b50335f806101000a81548173ffffffffffffffffffffffffffffffffffffffff021916908373ffffffffffffffffffffffffffffffffffffffff16021790555061139c8061005b5f395ff3fe608060405234801561000f575f80fd5b506004361061007b575f3560e01c80637acc0b20116100595780637acc0b20146100ea578063920e26211461011c578063ad95a8a214610138578063ce606ee0146101685761007b565b80630a01841d1461007f57806329507f731461009b5780636813b53b146100b7575b5f80fd5b61009960048036038101906100949190610b34565b610186565b005b6100b560048036038101906100b09190610be8565b61030f565b005b6100d160048036038101906100cc9190610c26565b6105dc565b6040516100e19493929190610d42565b60405180910390f35b61010460048036038101906100ff9190610c26565b610778565b60405161011393929190610d8c565b60405180910390f35b61013660048036038101906101319190610deb565b61083f565b005b610152600480360381019061014d9190610c26565b610961565b60405161015f9190610e29565b60405180910390f35b610170610991565b60405161017d9190610e29565b60405180910390f35b5f8054906101000a900473ffffffffffffffffffffffffffffffffffffffff1673ffffffffffffffffffffffffffffffffffffffff163373ffffffffffffffffffffffffffffffffffffffff1614610213576040517f08c379a000000000000000000000000000000000000000000000000000000000815260040161020a90610e8c565b60405180910390fd5b5f60405180606001604052808481526020018381526020015f600281111561023e5761023d610ccf565b5b8152509050600181908060018154018082558091505060019003905f5260205f2090600302015f909190919091505f820151815f0155602082015181600101908161028991906110a4565b506040820151816002015f6101000a81548160ff021916908360028111156102b4576102b3610ccf565b5b021790555050503360025f8581526020019081526020015f205f6101000a81548173ffffffffffffffffffffffffffffffffffffffff021916908373ffffffffffffffffffffffffffffffffffffffff160217905550505050565b813373ffffffffffffffffffffffffffffffffffffffff1660025f8381526020019081526020015f205f9054906101000a900473ffffffffffffffffffffffffffffffffffffffff1673ffffffffffffffffffffffffffffffffffffffff16146103ae576040517f08c379a00000000000000000000000000000000000000000000000000000000081526004016103a5906111bd565b60405180910390fd5b60018054905083106103f5576040517f08c379a00000000000000000000000000000000000000000000000000000000081526004016103ec90611225565b60405180910390fd5b5f73ffffffffffffffffffffffffffffffffffffffff168273ffffffffffffffffffffffffffffffffffffffff1603610463576040517f08c379a000000000000000000000000000000000000000000000000000000000815260040161045a9061128d565b60405180910390fd5b60028081111561047657610475610ccf565b5b6001848154811061048a576104896112ab565b5b905f5260205f2090600302016002015f9054906101000a900460ff1660028111156104b8576104b7610ccf565b5b146104f8576040517f08c379a00000000000000000000000000000000000000000000000000000000081526004016104ef90611348565b60405180910390fd5b5f60025f8581526020019081526020015f205f9054906101000a900473ffffffffffffffffffffffffffffffffffffffff1690508260025f8681526020019081526020015f205f6101000a81548173ffffffffffffffffffffffffffffffffffffffff021916908373ffffffffffffffffffffffffffffffffffffffff1602179055508273ffffffffffffffffffffffffffffffffffffffff168173ffffffffffffffffffffffffffffffffffffffff16857f16b85f49bf01212961345d3016c9a531894accf62eb7680f2045d79185cc0ec060405160405180910390a450505050565b5f60605f806001805490508510610628576040517f08c379a000000000000000000000000000000000000000000000000000000000815260040161061f90611225565b60405180910390fd5b5f6001868154811061063d5761063c6112ab565b5b905f5260205f2090600302016040518060600160405290815f820154815260200160018201805461066d90610ed7565b80601f016020809104026020016040519081016040528092919081815260200182805461069990610ed7565b80156106e45780601f106106bb576101008083540402835291602001916106e4565b820191905f5260205f20905b8154815290600101906020018083116106c757829003601f168201915b50505050508152602001600282015f9054906101000a900460ff16600281111561071157610710610ccf565b5b600281111561072357610722610ccf565b5b815250509050805f0151816020015160025f8981526020019081526020015f205f9054906101000a900473ffffffffffffffffffffffffffffffffffffffff1683604001519450945094509450509193509193565b60018181548110610787575f80fd5b905f5260205f2090600302015f91509050805f0154908060010180546107ac90610ed7565b80601f01602080910402602001604051908101604052809291908181526020018280546107d890610ed7565b80156108235780601f106107fa57610100808354040283529160200191610823565b820191905f5260205f20905b81548152906001019060200180831161080657829003601f168201915b505050505090806002015f9054906101000a900460ff16905083565b5f8054906101000a900473ffffffffffffffffffffffffffffffffffffffff1673ffffffffffffffffffffffffffffffffffffffff163373ffffffffffffffffffffffffffffffffffffffff16146108cc576040517f08c379a00000000000000000000000000000000000000000000000000000000081526004016108c390610e8c565b60405180910390fd5b6001805490508210610913576040517f08c379a000000000000000000000000000000000000000000000000000000000815260040161090a90611225565b60405180910390fd5b8060018381548110610928576109276112ab565b5b905f5260205f2090600302016002015f6101000a81548160ff0219169083600281111561095857610957610ccf565b5b02179055505050565b6002602052805f5260405f205f915054906101000a900473ffffffffffffffffffffffffffffffffffffffff1681565b5f8054906101000a900473ffffffffffffffffffffffffffffffffffffffff1681565b5f604051905090565b5f80fd5b5f80fd5b5f819050919050565b6109d7816109c5565b81146109e1575f80fd5b50565b5f813590506109f2816109ce565b92915050565b5f80fd5b5f80fd5b5f601f19601f8301169050919050565b7f4e487b71000000000000000000000000000000000000000000000000000000005f52604160045260245ffd5b610a4682610a00565b810181811067ffffffffffffffff82111715610a6557610a64610a10565b5b80604052505050565b5f610a776109b4565b9050610a838282610a3d565b919050565b5f67ffffffffffffffff821115610aa257610aa1610a10565b5b610aab82610a00565b9050602081019050919050565b828183375f83830152505050565b5f610ad8610ad384610a88565b610a6e565b905082815260208101848484011115610af457610af36109fc565b5b610aff848285610ab8565b509392505050565b5f82601f830112610b1b57610b1a6109f8565b5b8135610b2b848260208601610ac6565b91505092915050565b5f8060408385031215610b4a57610b496109bd565b5b5f610b57858286016109e4565b925050602083013567ffffffffffffffff811115610b7857610b776109c1565b5b610b8485828601610b07565b9150509250929050565b5f73ffffffffffffffffffffffffffffffffffffffff82169050919050565b5f610bb782610b8e565b9050919050565b610bc781610bad565b8114610bd1575f80fd5b50565b5f81359050610be281610bbe565b92915050565b5f8060408385031215610bfe57610bfd6109bd565b5b5f610c0b858286016109e4565b9250506020610c1c85828601610bd4565b9150509250929050565b5f60208284031215610c3b57610c3a6109bd565b5b5f610c48848285016109e4565b91505092915050565b610c5a816109c5565b82525050565b5f81519050919050565b5f82825260208201905092915050565b8281835e5f83830152505050565b5f610c9282610c60565b610c9c8185610c6a565b9350610cac818560208601610c7a565b610cb581610a00565b840191505092915050565b610cc981610bad565b82525050565b7f4e487b71000000000000000000000000000000000000000000000000000000005f52602160045260245ffd5b60038110610d0d57610d0c610ccf565b5b50565b5f819050610d1d82610cfc565b919050565b5f610d2c82610d10565b9050919050565b610d3c81610d22565b82525050565b5f608082019050610d555f830187610c51565b8181036020830152610d678186610c88565b9050610d766040830185610cc0565b610d836060830184610d33565b95945050505050565b5f606082019050610d9f5f830186610c51565b8181036020830152610db18185610c88565b9050610dc06040830184610d33565b949350505050565b60038110610dd4575f80fd5b50565b5f81359050610de581610dc8565b92915050565b5f8060408385031215610e0157610e006109bd565b5b5f610e0e858286016109e4565b9250506020610e1f85828601610dd7565b9150509250929050565b5f602082019050610e3c5f830184610cc0565b92915050565b7f596f7520617265206e6f742074686520636f6e7472616374206f776e657200005f82015250565b5f610e76601e83610c6a565b9150610e8182610e42565b602082019050919050565b5f6020820190508181035f830152610ea381610e6a565b9050919050565b7f4e487b71000000000000000000000000000000000000000000000000000000005f52602260045260245ffd5b5f6002820490506001821680610eee57607f821691505b602082108103610f0157610f00610eaa565b5b50919050565b5f819050815f5260205f209050919050565b5f6020601f8301049050919050565b5f82821b905092915050565b5f60088302610f637fffffffffffffffffffffffffffffffffffffffffffffffffffffffffffffffff82610f28565b610f6d8683610f28565b95508019841693508086168417925050509392505050565b5f819050919050565b5f610fa8610fa3610f9e846109c5565b610f85565b6109c5565b9050919050565b5f819050919050565b610fc183610f8e565b610fd5610fcd82610faf565b848454610f34565b825550505050565b5f90565b610fe9610fdd565b610ff4818484610fb8565b505050565b5b818110156110175761100c5f82610fe1565b600181019050610ffa565b5050565b601f82111561105c5761102d81610f07565b61103684610f19565b81016020851015611045578190505b61105961105185610f19565b830182610ff9565b50505b505050565b5f82821c905092915050565b5f61107c5f1984600802611061565b1980831691505092915050565b5f611094838361106d565b9150826002028217905092915050565b6110ad82610c60565b67ffffffffffffffff8111156110c6576110c5610a10565b5b6110d08254610ed7565b6110db82828561101b565b5f60209050601f83116001811461110c575f84156110fa578287015190505b6111048582611089565b86555061116b565b601f19841661111a86610f07565b5f5b828110156111415784890151825560018201915060208501945060208101905061111c565b8683101561115e578489015161115a601f89168261106d565b8355505b6001600288020188555050505b505050505050565b7f596f7520617265206e6f74207468652070726f64756374206f776e65720000005f82015250565b5f6111a7601d83610c6a565b91506111b282611173565b602082019050919050565b5f6020820190508181035f8301526111d48161119b565b9050919050565b7f50726f6475637420646f6573206e6f74206578697374000000000000000000005f82015250565b5f61120f601683610c6a565b915061121a826111db565b602082019050919050565b5f6020820190508181035f83015261123c81611203565b9050919050565b7f506c6561736520656e74657220612076616c69642061646472657373000000005f82015250565b5f611277601c83610c6a565b915061128282611243565b602082019050919050565b5f6020820190508181035f8301526112a48161126b565b9050919050565b7f4e487b71000000000000000000000000000000000000000000000000000000005f52603260045260245ffd5b7f4f776e6572736869702063616e206f6e6c79206265207472616e7366657272655f8201527f642061667465722064656c697665727900000000000000000000000000000000602082015250565b5f611332603083610c6a565b915061133d826112d8565b604082019050919050565b5f6020820190508181035f83015261135f81611326565b905091905056fea2646970667358221220304e10bac7fbe38cbd91dc1e67307972149496fe990fdfe1c1bb7f0ec07786cd64736f6c634300081a0033",
					"opcodes": "PUSH1 0x80 PUSH1 0x40 MSTORE CALLVALUE DUP1 ISZERO PUSH1 0xE JUMPI PUSH0 DUP1 REVERT JUMPDEST POP CALLER PUSH0 DUP1 PUSH2 0x100 EXP DUP2 SLOAD DUP2 PUSH20 0xFFFFFFFFFFFFFFFFFFFFFFFFFFFFFFFFFFFFFFFF MUL NOT AND SWAP1 DUP4 PUSH20 0xFFFFFFFFFFFFFFFFFFFFFFFFFFFFFFFFFFFFFFFF AND MUL OR SWAP1 SSTORE POP PUSH2 0x139C DUP1 PUSH2 0x5B PUSH0 CODECOPY PUSH0 RETURN INVALID PUSH1 0x80 PUSH1 0x40 MSTORE CALLVALUE DUP1 ISZERO PUSH2 0xF JUMPI PUSH0 DUP1 REVERT JUMPDEST POP PUSH1 0x4 CALLDATASIZE LT PUSH2 0x7B JUMPI PUSH0 CALLDATALOAD PUSH1 0xE0 SHR DUP1 PUSH4 0x7ACC0B20 GT PUSH2 0x59 JUMPI DUP1 PUSH4 0x7ACC0B20 EQ PUSH2 0xEA JUMPI DUP1 PUSH4 0x920E2621 EQ PUSH2 0x11C JUMPI DUP1 PUSH4 0xAD95A8A2 EQ PUSH2 0x138 JUMPI DUP1 PUSH4 0xCE606EE0 EQ PUSH2 0x168 JUMPI PUSH2 0x7B JUMP JUMPDEST DUP1 PUSH4 0xA01841D EQ PUSH2 0x7F JUMPI DUP1 PUSH4 0x29507F73 EQ PUSH2 0x9B JUMPI DUP1 PUSH4 0x6813B53B EQ PUSH2 0xB7 JUMPI JUMPDEST PUSH0 DUP1 REVERT JUMPDEST PUSH2 0x99 PUSH1 0x4 DUP1 CALLDATASIZE SUB DUP2 ADD SWAP1 PUSH2 0x94 SWAP2 SWAP1 PUSH2 0xB34 JUMP JUMPDEST PUSH2 0x186 JUMP JUMPDEST STOP JUMPDEST PUSH2 0xB5 PUSH1 0x4 DUP1 CALLDATASIZE SUB DUP2 ADD SWAP1 PUSH2 0xB0 SWAP2 SWAP1 PUSH2 0xBE8 JUMP JUMPDEST PUSH2 0x30F JUMP JUMPDEST STOP JUMPDEST PUSH2 0xD1 PUSH1 0x4 DUP1 CALLDATASIZE SUB DUP2 ADD SWAP1 PUSH2 0xCC SWAP2 SWAP1 PUSH2 0xC26 JUMP JUMPDEST PUSH2 0x5DC JUMP JUMPDEST PUSH1 0x40 MLOAD PUSH2 0xE1 SWAP5 SWAP4 SWAP3 SWAP2 SWAP1 PUSH2 0xD42 JUMP JUMPDEST PUSH1 0x40 MLOAD DUP1 SWAP2 SUB SWAP1 RETURN JUMPDEST PUSH2 0x104 PUSH1 0x4 DUP1 CALLDATASIZE SUB DUP2 ADD SWAP1 PUSH2 0xFF SWAP2 SWAP1 PUSH2 0xC26 JUMP JUMPDEST PUSH2 0x778 JUMP JUMPDEST PUSH1 0x40 MLOAD PUSH2 0x113 SWAP4 SWAP3 SWAP2 SWAP1 PUSH2 0xD8C JUMP JUMPDEST PUSH1 0x40 MLOAD DUP1 SWAP2 SUB SWAP1 RETURN JUMPDEST PUSH2 0x136 PUSH1 0x4 DUP1 CALLDATASIZE SUB DUP2 ADD SWAP1 PUSH2 0x131 SWAP2 SWAP1 PUSH2 0xDEB JUMP JUMPDEST PUSH2 0x83F JUMP JUMPDEST STOP JUMPDEST PUSH2 0x152 PUSH1 0x4 DUP1 CALLDATASIZE SUB DUP2 ADD SWAP1 PUSH2 0x14D SWAP2 SWAP1 PUSH2 0xC26 JUMP JUMPDEST PUSH2 0x961 JUMP JUMPDEST PUSH1 0x40 MLOAD PUSH2 0x15F SWAP2 SWAP1 PUSH2 0xE29 JUMP JUMPDEST PUSH1 0x40 MLOAD DUP1 SWAP2 SUB SWAP1 RETURN JUMPDEST PUSH2 0x170 PUSH2 0x991 JUMP JUMPDEST PUSH1 0x40 MLOAD PUSH2 0x17D SWAP2 SWAP1 PUSH2 0xE29 JUMP JUMPDEST PUSH1 0x40 MLOAD DUP1 SWAP2 SUB SWAP1 RETURN JUMPDEST PUSH0 DUP1 SLOAD SWAP1 PUSH2 0x100 EXP SWAP1 DIV PUSH20 0xFFFFFFFFFFFFFFFFFFFFFFFFFFFFFFFFFFFFFFFF AND PUSH20 0xFFFFFFFFFFFFFFFFFFFFFFFFFFFFFFFFFFFFFFFF AND CALLER PUSH20 0xFFFFFFFFFFFFFFFFFFFFFFFFFFFFFFFFFFFFFFFF AND EQ PUSH2 0x213 JUMPI PUSH1 0x40 MLOAD PUSH32 0x8C379A000000000000000000000000000000000000000000000000000000000 DUP2 MSTORE PUSH1 0x4 ADD PUSH2 0x20A SWAP1 PUSH2 0xE8C JUMP JUMPDEST PUSH1 0x40 MLOAD DUP1 SWAP2 SUB SWAP1 REVERT JUMPDEST PUSH0 PUSH1 0x40 MLOAD DUP1 PUSH1 0x60 ADD PUSH1 0x40 MSTORE DUP1 DUP5 DUP2 MSTORE PUSH1 0x20 ADD DUP4 DUP2 MSTORE PUSH1 0x20 ADD PUSH0 PUSH1 0x2 DUP2 GT ISZERO PUSH2 0x23E JUMPI PUSH2 0x23D PUSH2 0xCCF JUMP JUMPDEST JUMPDEST DUP2 MSTORE POP SWAP1 POP PUSH1 0x1 DUP2 SWAP1 DUP1 PUSH1 0x1 DUP2 SLOAD ADD DUP1 DUP3 SSTORE DUP1 SWAP2 POP POP PUSH1 0x1 SWAP1 SUB SWAP1 PUSH0 MSTORE PUSH1 0x20 PUSH0 KECCAK256 SWAP1 PUSH1 0x3 MUL ADD PUSH0 SWAP1 SWAP2 SWAP1 SWAP2 SWAP1 SWAP2 POP PUSH0 DUP3 ADD MLOAD DUP2 PUSH0 ADD SSTORE PUSH1 0x20 DUP3 ADD MLOAD DUP2 PUSH1 0x1 ADD SWAP1 DUP2 PUSH2 0x289 SWAP2 SWAP1 PUSH2 0x10A4 JUMP JUMPDEST POP PUSH1 0x40 DUP3 ADD MLOAD DUP2 PUSH1 0x2 ADD PUSH0 PUSH2 0x100 EXP DUP2 SLOAD DUP2 PUSH1 0xFF MUL NOT AND SWAP1 DUP4 PUSH1 0x2 DUP2 GT ISZERO PUSH2 0x2B4 JUMPI PUSH2 0x2B3 PUSH2 0xCCF JUMP JUMPDEST JUMPDEST MUL OR SWAP1 SSTORE POP POP POP CALLER PUSH1 0x2 PUSH0 DUP6 DUP2 MSTORE PUSH1 0x20 ADD SWAP1 DUP2 MSTORE PUSH1 0x20 ADD PUSH0 KECCAK256 PUSH0 PUSH2 0x100 EXP DUP2 SLOAD DUP2 PUSH20 0xFFFFFFFFFFFFFFFFFFFFFFFFFFFFFFFFFFFFFFFF MUL NOT AND SWAP1 DUP4 PUSH20 0xFFFFFFFFFFFFFFFFFFFFFFFFFFFFFFFFFFFFFFFF AND MUL OR SWAP1 SSTORE POP POP POP POP JUMP JUMPDEST DUP2 CALLER PUSH20 0xFFFFFFFFFFFFFFFFFFFFFFFFFFFFFFFFFFFFFFFF AND PUSH1 0x2 PUSH0 DUP4 DUP2 MSTORE PUSH1 0x20 ADD SWAP1 DUP2 MSTORE PUSH1 0x20 ADD PUSH0 KECCAK256 PUSH0 SWAP1 SLOAD SWAP1 PUSH2 0x100 EXP SWAP1 DIV PUSH20 0xFFFFFFFFFFFFFFFFFFFFFFFFFFFFFFFFFFFFFFFF AND PUSH20 0xFFFFFFFFFFFFFFFFFFFFFFFFFFFFFFFFFFFFFFFF AND EQ PUSH2 0x3AE JUMPI PUSH1 0x40 MLOAD PUSH32 0x8C379A000000000000000000000000000000000000000000000000000000000 DUP2 MSTORE PUSH1 0x4 ADD PUSH2 0x3A5 SWAP1 PUSH2 0x11BD JUMP JUMPDEST PUSH1 0x40 MLOAD DUP1 SWAP2 SUB SWAP1 REVERT JUMPDEST PUSH1 0x1 DUP1 SLOAD SWAP1 POP DUP4 LT PUSH2 0x3F5 JUMPI PUSH1 0x40 MLOAD PUSH32 0x8C379A000000000000000000000000000000000000000000000000000000000 DUP2 MSTORE PUSH1 0x4 ADD PUSH2 0x3EC SWAP1 PUSH2 0x1225 JUMP JUMPDEST PUSH1 0x40 MLOAD DUP1 SWAP2 SUB SWAP1 REVERT JUMPDEST PUSH0 PUSH20 0xFFFFFFFFFFFFFFFFFFFFFFFFFFFFFFFFFFFFFFFF AND DUP3 PUSH20 0xFFFFFFFFFFFFFFFFFFFFFFFFFFFFFFFFFFFFFFFF AND SUB PUSH2 0x463 JUMPI PUSH1 0x40 MLOAD PUSH32 0x8C379A000000000000000000000000000000000000000000000000000000000 DUP2 MSTORE PUSH1 0x4 ADD PUSH2 0x45A SWAP1 PUSH2 0x128D JUMP JUMPDEST PUSH1 0x40 MLOAD DUP1 SWAP2 SUB SWAP1 REVERT JUMPDEST PUSH1 0x2 DUP1 DUP2 GT ISZERO PUSH2 0x476 JUMPI PUSH2 0x475 PUSH2 0xCCF JUMP JUMPDEST JUMPDEST PUSH1 0x1 DUP5 DUP2 SLOAD DUP2 LT PUSH2 0x48A JUMPI PUSH2 0x489 PUSH2 0x12AB JUMP JUMPDEST JUMPDEST SWAP1 PUSH0 MSTORE PUSH1 0x20 PUSH0 KECCAK256 SWAP1 PUSH1 0x3 MUL ADD PUSH1 0x2 ADD PUSH0 SWAP1 SLOAD SWAP1 PUSH2 0x100 EXP SWAP1 DIV PUSH1 0xFF AND PUSH1 0x2 DUP2 GT ISZERO PUSH2 0x4B8 JUMPI PUSH2 0x4B7 PUSH2 0xCCF JUMP JUMPDEST JUMPDEST EQ PUSH2 0x4F8 JUMPI PUSH1 0x40 MLOAD PUSH32 0x8C379A000000000000000000000000000000000000000000000000000000000 DUP2 MSTORE PUSH1 0x4 ADD PUSH2 0x4EF SWAP1 PUSH2 0x1348 JUMP JUMPDEST PUSH1 0x40 MLOAD DUP1 SWAP2 SUB SWAP1 REVERT JUMPDEST PUSH0 PUSH1 0x2 PUSH0 DUP6 DUP2 MSTORE PUSH1 0x20 ADD SWAP1 DUP2 MSTORE PUSH1 0x20 ADD PUSH0 KECCAK256 PUSH0 SWAP1 SLOAD SWAP1 PUSH2 0x100 EXP SWAP1 DIV PUSH20 0xFFFFFFFFFFFFFFFFFFFFFFFFFFFFFFFFFFFFFFFF AND SWAP1 POP DUP3 PUSH1 0x2 PUSH0 DUP7 DUP2 MSTORE PUSH1 0x20 ADD SWAP1 DUP2 MSTORE PUSH1 0x20 ADD PUSH0 KECCAK256 PUSH0 PUSH2 0x100 EXP DUP2 SLOAD DUP2 PUSH20 0xFFFFFFFFFFFFFFFFFFFFFFFFFFFFFFFFFFFFFFFF MUL NOT AND SWAP1 DUP4 PUSH20 0xFFFFFFFFFFFFFFFFFFFFFFFFFFFFFFFFFFFFFFFF AND MUL OR SWAP1 SSTORE POP DUP3 PUSH20 0xFFFFFFFFFFFFFFFFFFFFFFFFFFFFFFFFFFFFFFFF AND DUP2 PUSH20 0xFFFFFFFFFFFFFFFFFFFFFFFFFFFFFFFFFFFFFFFF AND DUP6 PUSH32 0x16B85F49BF01212961345D3016C9A531894ACCF62EB7680F2045D79185CC0EC0 PUSH1 0x40 MLOAD PUSH1 0x40 MLOAD DUP1 SWAP2 SUB SWAP1 LOG4 POP POP POP POP JUMP JUMPDEST PUSH0 PUSH1 0x60 PUSH0 DUP1 PUSH1 0x1 DUP1 SLOAD SWAP1 POP DUP6 LT PUSH2 0x628 JUMPI PUSH1 0x40 MLOAD PUSH32 0x8C379A000000000000000000000000000000000000000000000000000000000 DUP2 MSTORE PUSH1 0x4 ADD PUSH2 0x61F SWAP1 PUSH2 0x1225 JUMP JUMPDEST PUSH1 0x40 MLOAD DUP1 SWAP2 SUB SWAP1 REVERT JUMPDEST PUSH0 PUSH1 0x1 DUP7 DUP2 SLOAD DUP2 LT PUSH2 0x63D JUMPI PUSH2 0x63C PUSH2 0x12AB JUMP JUMPDEST JUMPDEST SWAP1 PUSH0 MSTORE PUSH1 0x20 PUSH0 KECCAK256 SWAP1 PUSH1 0x3 MUL ADD PUSH1 0x40 MLOAD DUP1 PUSH1 0x60 ADD PUSH1 0x40 MSTORE SWAP1 DUP2 PUSH0 DUP3 ADD SLOAD DUP2 MSTORE PUSH1 0x20 ADD PUSH1 0x1 DUP3 ADD DUP1 SLOAD PUSH2 0x66D SWAP1 PUSH2 0xED7 JUMP JUMPDEST DUP1 PUSH1 0x1F ADD PUSH1 0x20 DUP1 SWAP2 DIV MUL PUSH1 0x20 ADD PUSH1 0x40 MLOAD SWAP1 DUP2 ADD PUSH1 0x40 MSTORE DUP1 SWAP3 SWAP2 SWAP1 DUP2 DUP2 MSTORE PUSH1 0x20 ADD DUP3 DUP1 SLOAD PUSH2 0x699 SWAP1 PUSH2 0xED7 JUMP JUMPDEST DUP1 ISZERO PUSH2 0x6E4 JUMPI DUP1 PUSH1 0x1F LT PUSH2 0x6BB JUMPI PUSH2 0x100 DUP1 DUP4 SLOAD DIV MUL DUP4 MSTORE SWAP2 PUSH1 0x20 ADD SWAP2 PUSH2 0x6E4 JUMP JUMPDEST DUP3 ADD SWAP2 SWAP1 PUSH0 MSTORE PUSH1 0x20 PUSH0 KECCAK256 SWAP1 JUMPDEST DUP2 SLOAD DUP2 MSTORE SWAP1 PUSH1 0x1 ADD SWAP1 PUSH1 0x20 ADD DUP1 DUP4 GT PUSH2 0x6C7 JUMPI DUP3 SWAP1 SUB PUSH1 0x1F AND DUP3 ADD SWAP2 JUMPDEST POP POP POP POP POP DUP2 MSTORE PUSH1 0x20 ADD PUSH1 0x2 DUP3 ADD PUSH0 SWAP1 SLOAD SWAP1 PUSH2 0x100 EXP SWAP1 DIV PUSH1 0xFF AND PUSH1 0x2 DUP2 GT ISZERO PUSH2 0x711 JUMPI PUSH2 0x710 PUSH2 0xCCF JUMP JUMPDEST JUMPDEST PUSH1 0x2 DUP2 GT ISZERO PUSH2 0x723 JUMPI PUSH2 0x722 PUSH2 0xCCF JUMP JUMPDEST JUMPDEST DUP2 MSTORE POP POP SWAP1 POP DUP1 PUSH0 ADD MLOAD DUP2 PUSH1 0x20 ADD MLOAD PUSH1 0x2 PUSH0 DUP10 DUP2 MSTORE PUSH1 0x20 ADD SWAP1 DUP2 MSTORE PUSH1 0x20 ADD PUSH0 KECCAK256 PUSH0 SWAP1 SLOAD SWAP1 PUSH2 0x100 EXP SWAP1 DIV PUSH20 0xFFFFFFFFFFFFFFFFFFFFFFFFFFFFFFFFFFFFFFFF AND DUP4 PUSH1 0x40 ADD MLOAD SWAP5 POP SWAP5 POP SWAP5 POP SWAP5 POP POP SWAP2 SWAP4 POP SWAP2 SWAP4 JUMP JUMPDEST PUSH1 0x1 DUP2 DUP2 SLOAD DUP2 LT PUSH2 0x787 JUMPI PUSH0 DUP1 REVERT JUMPDEST SWAP1 PUSH0 MSTORE PUSH1 0x20 PUSH0 KECCAK256 SWAP1 PUSH1 0x3 MUL ADD PUSH0 SWAP2 POP SWAP1 POP DUP1 PUSH0 ADD SLOAD SWAP1 DUP1 PUSH1 0x1 ADD DUP1 SLOAD PUSH2 0x7AC SWAP1 PUSH2 0xED7 JUMP JUMPDEST DUP1 PUSH1 0x1F ADD PUSH1 0x20 DUP1 SWAP2 DIV MUL PUSH1 0x20 ADD PUSH1 0x40 MLOAD SWAP1 DUP2 ADD PUSH1 0x40 MSTORE DUP1 SWAP3 SWAP2 SWAP1 DUP2 DUP2 MSTORE PUSH1 0x20 ADD DUP3 DUP1 SLOAD PUSH2 0x7D8 SWAP1 PUSH2 0xED7 JUMP JUMPDEST DUP1 ISZERO PUSH2 0x823 JUMPI DUP1 PUSH1 0x1F LT PUSH2 0x7FA JUMPI PUSH2 0x100 DUP1 DUP4 SLOAD DIV MUL DUP4 MSTORE SWAP2 PUSH1 0x20 ADD SWAP2 PUSH2 0x823 JUMP JUMPDEST DUP3 ADD SWAP2 SWAP1 PUSH0 MSTORE PUSH1 0x20 PUSH0 KECCAK256 SWAP1 JUMPDEST DUP2 SLOAD DUP2 MSTORE SWAP1 PUSH1 0x1 ADD SWAP1 PUSH1 0x20 ADD DUP1 DUP4 GT PUSH2 0x806 JUMPI DUP3 SWAP1 SUB PUSH1 0x1F AND DUP3 ADD SWAP2 JUMPDEST POP POP POP POP POP SWAP1 DUP1 PUSH1 0x2 ADD PUSH0 SWAP1 SLOAD SWAP1 PUSH2 0x100 EXP SWAP1 DIV PUSH1 0xFF AND SWAP1 POP DUP4 JUMP JUMPDEST PUSH0 DUP1 SLOAD SWAP1 PUSH2 0x100 EXP SWAP1 DIV PUSH20 0xFFFFFFFFFFFFFFFFFFFFFFFFFFFFFFFFFFFFFFFF AND PUSH20 0xFFFFFFFFFFFFFFFFFFFFFFFFFFFFFFFFFFFFFFFF AND CALLER PUSH20 0xFFFFFFFFFFFFFFFFFFFFFFFFFFFFFFFFFFFFFFFF AND EQ PUSH2 0x8CC JUMPI PUSH1 0x40 MLOAD PUSH32 0x8C379A000000000000000000000000000000000000000000000000000000000 DUP2 MSTORE PUSH1 0x4 ADD PUSH2 0x8C3 SWAP1 PUSH2 0xE8C JUMP JUMPDEST PUSH1 0x40 MLOAD DUP1 SWAP2 SUB SWAP1 REVERT JUMPDEST PUSH1 0x1 DUP1 SLOAD SWAP1 POP DUP3 LT PUSH2 0x913 JUMPI PUSH1 0x40 MLOAD PUSH32 0x8C379A000000000000000000000000000000000000000000000000000000000 DUP2 MSTORE PUSH1 0x4 ADD PUSH2 0x90A SWAP1 PUSH2 0x1225 JUMP JUMPDEST PUSH1 0x40 MLOAD DUP1 SWAP2 SUB SWAP1 REVERT JUMPDEST DUP1 PUSH1 0x1 DUP4 DUP2 SLOAD DUP2 LT PUSH2 0x928 JUMPI PUSH2 0x927 PUSH2 0x12AB JUMP JUMPDEST JUMPDEST SWAP1 PUSH0 MSTORE PUSH1 0x20 PUSH0 KECCAK256 SWAP1 PUSH1 0x3 MUL ADD PUSH1 0x2 ADD PUSH0 PUSH2 0x100 EXP DUP2 SLOAD DUP2 PUSH1 0xFF MUL NOT AND SWAP1 DUP4 PUSH1 0x2 DUP2 GT ISZERO PUSH2 0x958 JUMPI PUSH2 0x957 PUSH2 0xCCF JUMP JUMPDEST JUMPDEST MUL OR SWAP1 SSTORE POP POP POP JUMP JUMPDEST PUSH1 0x2 PUSH1 0x20 MSTORE DUP1 PUSH0 MSTORE PUSH1 0x40 PUSH0 KECCAK256 PUSH0 SWAP2 POP SLOAD SWAP1 PUSH2 0x100 EXP SWAP1 DIV PUSH20 0xFFFFFFFFFFFFFFFFFFFFFFFFFFFFFFFFFFFFFFFF AND DUP2 JUMP JUMPDEST PUSH0 DUP1 SLOAD SWAP1 PUSH2 0x100 EXP SWAP1 DIV PUSH20 0xFFFFFFFFFFFFFFFFFFFFFFFFFFFFFFFFFFFFFFFF AND DUP2 JUMP JUMPDEST PUSH0 PUSH1 0x40 MLOAD SWAP1 POP SWAP1 JUMP JUMPDEST PUSH0 DUP1 REVERT JUMPDEST PUSH0 DUP1 REVERT JUMPDEST PUSH0 DUP2 SWAP1 POP SWAP2 SWAP1 POP JUMP JUMPDEST PUSH2 0x9D7 DUP2 PUSH2 0x9C5 JUMP JUMPDEST DUP2 EQ PUSH2 0x9E1 JUMPI PUSH0 DUP1 REVERT JUMPDEST POP JUMP JUMPDEST PUSH0 DUP2 CALLDATALOAD SWAP1 POP PUSH2 0x9F2 DUP2 PUSH2 0x9CE JUMP JUMPDEST SWAP3 SWAP2 POP POP JUMP JUMPDEST PUSH0 DUP1 REVERT JUMPDEST PUSH0 DUP1 REVERT JUMPDEST PUSH0 PUSH1 0x1F NOT PUSH1 0x1F DUP4 ADD AND SWAP1 POP SWAP2 SWAP1 POP JUMP JUMPDEST PUSH32 0x4E487B7100000000000000000000000000000000000000000000000000000000 PUSH0 MSTORE PUSH1 0x41 PUSH1 0x4 MSTORE PUSH1 0x24 PUSH0 REVERT JUMPDEST PUSH2 0xA46 DUP3 PUSH2 0xA00 JUMP JUMPDEST DUP2 ADD DUP2 DUP2 LT PUSH8 0xFFFFFFFFFFFFFFFF DUP3 GT OR ISZERO PUSH2 0xA65 JUMPI PUSH2 0xA64 PUSH2 0xA10 JUMP JUMPDEST JUMPDEST DUP1 PUSH1 0x40 MSTORE POP POP POP JUMP JUMPDEST PUSH0 PUSH2 0xA77 PUSH2 0x9B4 JUMP JUMPDEST SWAP1 POP PUSH2 0xA83 DUP3 DUP3 PUSH2 0xA3D JUMP JUMPDEST SWAP2 SWAP1 POP JUMP JUMPDEST PUSH0 PUSH8 0xFFFFFFFFFFFFFFFF DUP3 GT ISZERO PUSH2 0xAA2 JUMPI PUSH2 0xAA1 PUSH2 0xA10 JUMP JUMPDEST JUMPDEST PUSH2 0xAAB DUP3 PUSH2 0xA00 JUMP JUMPDEST SWAP1 POP PUSH1 0x20 DUP2 ADD SWAP1 POP SWAP2 SWAP1 POP JUMP JUMPDEST DUP3 DUP2 DUP4 CALLDATACOPY PUSH0 DUP4 DUP4 ADD MSTORE POP POP POP JUMP JUMPDEST PUSH0 PUSH2 0xAD8 PUSH2 0xAD3 DUP5 PUSH2 0xA88 JUMP JUMPDEST PUSH2 0xA6E JUMP JUMPDEST SWAP1 POP DUP3 DUP2 MSTORE PUSH1 0x20 DUP2 ADD DUP5 DUP5 DUP5 ADD GT ISZERO PUSH2 0xAF4 JUMPI PUSH2 0xAF3 PUSH2 0x9FC JUMP JUMPDEST JUMPDEST PUSH2 0xAFF DUP5 DUP3 DUP6 PUSH2 0xAB8 JUMP JUMPDEST POP SWAP4 SWAP3 POP POP POP JUMP JUMPDEST PUSH0 DUP3 PUSH1 0x1F DUP4 ADD SLT PUSH2 0xB1B JUMPI PUSH2 0xB1A PUSH2 0x9F8 JUMP JUMPDEST JUMPDEST DUP2 CALLDATALOAD PUSH2 0xB2B DUP5 DUP3 PUSH1 0x20 DUP7 ADD PUSH2 0xAC6 JUMP JUMPDEST SWAP2 POP POP SWAP3 SWAP2 POP POP JUMP JUMPDEST PUSH0 DUP1 PUSH1 0x40 DUP4 DUP6 SUB SLT ISZERO PUSH2 0xB4A JUMPI PUSH2 0xB49 PUSH2 0x9BD JUMP JUMPDEST JUMPDEST PUSH0 PUSH2 0xB57 DUP6 DUP3 DUP7 ADD PUSH2 0x9E4 JUMP JUMPDEST SWAP3 POP POP PUSH1 0x20 DUP4 ADD CALLDATALOAD PUSH8 0xFFFFFFFFFFFFFFFF DUP2 GT ISZERO PUSH2 0xB78 JUMPI PUSH2 0xB77 PUSH2 0x9C1 JUMP JUMPDEST JUMPDEST PUSH2 0xB84 DUP6 DUP3 DUP7 ADD PUSH2 0xB07 JUMP JUMPDEST SWAP2 POP POP SWAP3 POP SWAP3 SWAP1 POP JUMP JUMPDEST PUSH0 PUSH20 0xFFFFFFFFFFFFFFFFFFFFFFFFFFFFFFFFFFFFFFFF DUP3 AND SWAP1 POP SWAP2 SWAP1 POP JUMP JUMPDEST PUSH0 PUSH2 0xBB7 DUP3 PUSH2 0xB8E JUMP JUMPDEST SWAP1 POP SWAP2 SWAP1 POP JUMP JUMPDEST PUSH2 0xBC7 DUP2 PUSH2 0xBAD JUMP JUMPDEST DUP2 EQ PUSH2 0xBD1 JUMPI PUSH0 DUP1 REVERT JUMPDEST POP JUMP JUMPDEST PUSH0 DUP2 CALLDATALOAD SWAP1 POP PUSH2 0xBE2 DUP2 PUSH2 0xBBE JUMP JUMPDEST SWAP3 SWAP2 POP POP JUMP JUMPDEST PUSH0 DUP1 PUSH1 0x40 DUP4 DUP6 SUB SLT ISZERO PUSH2 0xBFE JUMPI PUSH2 0xBFD PUSH2 0x9BD JUMP JUMPDEST JUMPDEST PUSH0 PUSH2 0xC0B DUP6 DUP3 DUP7 ADD PUSH2 0x9E4 JUMP JUMPDEST SWAP3 POP POP PUSH1 0x20 PUSH2 0xC1C DUP6 DUP3 DUP7 ADD PUSH2 0xBD4 JUMP JUMPDEST SWAP2 POP POP SWAP3 POP SWAP3 SWAP1 POP JUMP JUMPDEST PUSH0 PUSH1 0x20 DUP3 DUP5 SUB SLT ISZERO PUSH2 0xC3B JUMPI PUSH2 0xC3A PUSH2 0x9BD JUMP JUMPDEST JUMPDEST PUSH0 PUSH2 0xC48 DUP5 DUP3 DUP6 ADD PUSH2 0x9E4 JUMP JUMPDEST SWAP2 POP POP SWAP3 SWAP2 POP POP JUMP JUMPDEST PUSH2 0xC5A DUP2 PUSH2 0x9C5 JUMP JUMPDEST DUP3 MSTORE POP POP JUMP JUMPDEST PUSH0 DUP2 MLOAD SWAP1 POP SWAP2 SWAP1 POP JUMP JUMPDEST PUSH0 DUP3 DUP3 MSTORE PUSH1 0x20 DUP3 ADD SWAP1 POP SWAP3 SWAP2 POP POP JUMP JUMPDEST DUP3 DUP2 DUP4 MCOPY PUSH0 DUP4 DUP4 ADD MSTORE POP POP POP JUMP JUMPDEST PUSH0 PUSH2 0xC92 DUP3 PUSH2 0xC60 JUMP JUMPDEST PUSH2 0xC9C DUP2 DUP6 PUSH2 0xC6A JUMP JUMPDEST SWAP4 POP PUSH2 0xCAC DUP2 DUP6 PUSH1 0x20 DUP7 ADD PUSH2 0xC7A JUMP JUMPDEST PUSH2 0xCB5 DUP2 PUSH2 0xA00 JUMP JUMPDEST DUP5 ADD SWAP2 POP POP SWAP3 SWAP2 POP POP JUMP JUMPDEST PUSH2 0xCC9 DUP2 PUSH2 0xBAD JUMP JUMPDEST DUP3 MSTORE POP POP JUMP JUMPDEST PUSH32 0x4E487B7100000000000000000000000000000000000000000000000000000000 PUSH0 MSTORE PUSH1 0x21 PUSH1 0x4 MSTORE PUSH1 0x24 PUSH0 REVERT JUMPDEST PUSH1 0x3 DUP2 LT PUSH2 0xD0D JUMPI PUSH2 0xD0C PUSH2 0xCCF JUMP JUMPDEST JUMPDEST POP JUMP JUMPDEST PUSH0 DUP2 SWAP1 POP PUSH2 0xD1D DUP3 PUSH2 0xCFC JUMP JUMPDEST SWAP2 SWAP1 POP JUMP JUMPDEST PUSH0 PUSH2 0xD2C DUP3 PUSH2 0xD10 JUMP JUMPDEST SWAP1 POP SWAP2 SWAP1 POP JUMP JUMPDEST PUSH2 0xD3C DUP2 PUSH2 0xD22 JUMP JUMPDEST DUP3 MSTORE POP POP JUMP JUMPDEST PUSH0 PUSH1 0x80 DUP3 ADD SWAP1 POP PUSH2 0xD55 PUSH0 DUP4 ADD DUP8 PUSH2 0xC51 JUMP JUMPDEST DUP2 DUP2 SUB PUSH1 0x20 DUP4 ADD MSTORE PUSH2 0xD67 DUP2 DUP7 PUSH2 0xC88 JUMP JUMPDEST SWAP1 POP PUSH2 0xD76 PUSH1 0x40 DUP4 ADD DUP6 PUSH2 0xCC0 JUMP JUMPDEST PUSH2 0xD83 PUSH1 0x60 DUP4 ADD DUP5 PUSH2 0xD33 JUMP JUMPDEST SWAP6 SWAP5 POP POP POP POP POP JUMP JUMPDEST PUSH0 PUSH1 0x60 DUP3 ADD SWAP1 POP PUSH2 0xD9F PUSH0 DUP4 ADD DUP7 PUSH2 0xC51 JUMP JUMPDEST DUP2 DUP2 SUB PUSH1 0x20 DUP4 ADD MSTORE PUSH2 0xDB1 DUP2 DUP6 PUSH2 0xC88 JUMP JUMPDEST SWAP1 POP PUSH2 0xDC0 PUSH1 0x40 DUP4 ADD DUP5 PUSH2 0xD33 JUMP JUMPDEST SWAP5 SWAP4 POP POP POP POP JUMP JUMPDEST PUSH1 0x3 DUP2 LT PUSH2 0xDD4 JUMPI PUSH0 DUP1 REVERT JUMPDEST POP JUMP JUMPDEST PUSH0 DUP2 CALLDATALOAD SWAP1 POP PUSH2 0xDE5 DUP2 PUSH2 0xDC8 JUMP JUMPDEST SWAP3 SWAP2 POP POP JUMP JUMPDEST PUSH0 DUP1 PUSH1 0x40 DUP4 DUP6 SUB SLT ISZERO PUSH2 0xE01 JUMPI PUSH2 0xE00 PUSH2 0x9BD JUMP JUMPDEST JUMPDEST PUSH0 PUSH2 0xE0E DUP6 DUP3 DUP7 ADD PUSH2 0x9E4 JUMP JUMPDEST SWAP3 POP POP PUSH1 0x20 PUSH2 0xE1F DUP6 DUP3 DUP7 ADD PUSH2 0xDD7 JUMP JUMPDEST SWAP2 POP POP SWAP3 POP SWAP3 SWAP1 POP JUMP JUMPDEST PUSH0 PUSH1 0x20 DUP3 ADD SWAP1 POP PUSH2 0xE3C PUSH0 DUP4 ADD DUP5 PUSH2 0xCC0 JUMP JUMPDEST SWAP3 SWAP2 POP POP JUMP JUMPDEST PUSH32 0x596F7520617265206E6F742074686520636F6E7472616374206F776E65720000 PUSH0 DUP3 ADD MSTORE POP JUMP JUMPDEST PUSH0 PUSH2 0xE76 PUSH1 0x1E DUP4 PUSH2 0xC6A JUMP JUMPDEST SWAP2 POP PUSH2 0xE81 DUP3 PUSH2 0xE42 JUMP JUMPDEST PUSH1 0x20 DUP3 ADD SWAP1 POP SWAP2 SWAP1 POP JUMP JUMPDEST PUSH0 PUSH1 0x20 DUP3 ADD SWAP1 POP DUP2 DUP2 SUB PUSH0 DUP4 ADD MSTORE PUSH2 0xEA3 DUP2 PUSH2 0xE6A JUMP JUMPDEST SWAP1 POP SWAP2 SWAP1 POP JUMP JUMPDEST PUSH32 0x4E487B7100000000000000000000000000000000000000000000000000000000 PUSH0 MSTORE PUSH1 0x22 PUSH1 0x4 MSTORE PUSH1 0x24 PUSH0 REVERT JUMPDEST PUSH0 PUSH1 0x2 DUP3 DIV SWAP1 POP PUSH1 0x1 DUP3 AND DUP1 PUSH2 0xEEE JUMPI PUSH1 0x7F DUP3 AND SWAP2 POP JUMPDEST PUSH1 0x20 DUP3 LT DUP2 SUB PUSH2 0xF01 JUMPI PUSH2 0xF00 PUSH2 0xEAA JUMP JUMPDEST JUMPDEST POP SWAP2 SWAP1 POP JUMP JUMPDEST PUSH0 DUP2 SWAP1 POP DUP2 PUSH0 MSTORE PUSH1 0x20 PUSH0 KECCAK256 SWAP1 POP SWAP2 SWAP1 POP JUMP JUMPDEST PUSH0 PUSH1 0x20 PUSH1 0x1F DUP4 ADD DIV SWAP1 POP SWAP2 SWAP1 POP JUMP JUMPDEST PUSH0 DUP3 DUP3 SHL SWAP1 POP SWAP3 SWAP2 POP POP JUMP JUMPDEST PUSH0 PUSH1 0x8 DUP4 MUL PUSH2 0xF63 PUSH32 0xFFFFFFFFFFFFFFFFFFFFFFFFFFFFFFFFFFFFFFFFFFFFFFFFFFFFFFFFFFFFFFFF DUP3 PUSH2 0xF28 JUMP JUMPDEST PUSH2 0xF6D DUP7 DUP4 PUSH2 0xF28 JUMP JUMPDEST SWAP6 POP DUP1 NOT DUP5 AND SWAP4 POP DUP1 DUP7 AND DUP5 OR SWAP3 POP POP POP SWAP4 SWAP3 POP POP POP JUMP JUMPDEST PUSH0 DUP2 SWAP1 POP SWAP2 SWAP1 POP JUMP JUMPDEST PUSH0 PUSH2 0xFA8 PUSH2 0xFA3 PUSH2 0xF9E DUP5 PUSH2 0x9C5 JUMP JUMPDEST PUSH2 0xF85 JUMP JUMPDEST PUSH2 0x9C5 JUMP JUMPDEST SWAP1 POP SWAP2 SWAP1 POP JUMP JUMPDEST PUSH0 DUP2 SWAP1 POP SWAP2 SWAP1 POP JUMP JUMPDEST PUSH2 0xFC1 DUP4 PUSH2 0xF8E JUMP JUMPDEST PUSH2 0xFD5 PUSH2 0xFCD DUP3 PUSH2 0xFAF JUMP JUMPDEST DUP5 DUP5 SLOAD PUSH2 0xF34 JUMP JUMPDEST DUP3 SSTORE POP POP POP POP JUMP JUMPDEST PUSH0 SWAP1 JUMP JUMPDEST PUSH2 0xFE9 PUSH2 0xFDD JUMP JUMPDEST PUSH2 0xFF4 DUP2 DUP5 DUP5 PUSH2 0xFB8 JUMP JUMPDEST POP POP POP JUMP JUMPDEST JUMPDEST DUP2 DUP2 LT ISZERO PUSH2 0x1017 JUMPI PUSH2 0x100C PUSH0 DUP3 PUSH2 0xFE1 JUMP JUMPDEST PUSH1 0x1 DUP2 ADD SWAP1 POP PUSH2 0xFFA JUMP JUMPDEST POP POP JUMP JUMPDEST PUSH1 0x1F DUP3 GT ISZERO PUSH2 0x105C JUMPI PUSH2 0x102D DUP2 PUSH2 0xF07 JUMP JUMPDEST PUSH2 0x1036 DUP5 PUSH2 0xF19 JUMP JUMPDEST DUP2 ADD PUSH1 0x20 DUP6 LT ISZERO PUSH2 0x1045 JUMPI DUP2 SWAP1 POP JUMPDEST PUSH2 0x1059 PUSH2 0x1051 DUP6 PUSH2 0xF19 JUMP JUMPDEST DUP4 ADD DUP3 PUSH2 0xFF9 JUMP JUMPDEST POP POP JUMPDEST POP POP POP JUMP JUMPDEST PUSH0 DUP3 DUP3 SHR SWAP1 POP SWAP3 SWAP2 POP POP JUMP JUMPDEST PUSH0 PUSH2 0x107C PUSH0 NOT DUP5 PUSH1 0x8 MUL PUSH2 0x1061 JUMP JUMPDEST NOT DUP1 DUP4 AND SWAP2 POP POP SWAP3 SWAP2 POP POP JUMP JUMPDEST PUSH0 PUSH2 0x1094 DUP4 DUP4 PUSH2 0x106D JUMP JUMPDEST SWAP2 POP DUP3 PUSH1 0x2 MUL DUP3 OR SWAP1 POP SWAP3 SWAP2 POP POP JUMP JUMPDEST PUSH2 0x10AD DUP3 PUSH2 0xC60 JUMP JUMPDEST PUSH8 0xFFFFFFFFFFFFFFFF DUP2 GT ISZERO PUSH2 0x10C6 JUMPI PUSH2 0x10C5 PUSH2 0xA10 JUMP JUMPDEST JUMPDEST PUSH2 0x10D0 DUP3 SLOAD PUSH2 0xED7 JUMP JUMPDEST PUSH2 0x10DB DUP3 DUP3 DUP6 PUSH2 0x101B JUMP JUMPDEST PUSH0 PUSH1 0x20 SWAP1 POP PUSH1 0x1F DUP4 GT PUSH1 0x1 DUP2 EQ PUSH2 0x110C JUMPI PUSH0 DUP5 ISZERO PUSH2 0x10FA JUMPI DUP3 DUP8 ADD MLOAD SWAP1 POP JUMPDEST PUSH2 0x1104 DUP6 DUP3 PUSH2 0x1089 JUMP JUMPDEST DUP7 SSTORE POP PUSH2 0x116B JUMP JUMPDEST PUSH1 0x1F NOT DUP5 AND PUSH2 0x111A DUP7 PUSH2 0xF07 JUMP JUMPDEST PUSH0 JUMPDEST DUP3 DUP2 LT ISZERO PUSH2 0x1141 JUMPI DUP5 DUP10 ADD MLOAD DUP3 SSTORE PUSH1 0x1 DUP3 ADD SWAP2 POP PUSH1 0x20 DUP6 ADD SWAP5 POP PUSH1 0x20 DUP2 ADD SWAP1 POP PUSH2 0x111C JUMP JUMPDEST DUP7 DUP4 LT ISZERO PUSH2 0x115E JUMPI DUP5 DUP10 ADD MLOAD PUSH2 0x115A PUSH1 0x1F DUP10 AND DUP3 PUSH2 0x106D JUMP JUMPDEST DUP4 SSTORE POP JUMPDEST PUSH1 0x1 PUSH1 0x2 DUP9 MUL ADD DUP9 SSTORE POP POP POP JUMPDEST POP POP POP POP POP POP JUMP JUMPDEST PUSH32 0x596F7520617265206E6F74207468652070726F64756374206F776E6572000000 PUSH0 DUP3 ADD MSTORE POP JUMP JUMPDEST PUSH0 PUSH2 0x11A7 PUSH1 0x1D DUP4 PUSH2 0xC6A JUMP JUMPDEST SWAP2 POP PUSH2 0x11B2 DUP3 PUSH2 0x1173 JUMP JUMPDEST PUSH1 0x20 DUP3 ADD SWAP1 POP SWAP2 SWAP1 POP JUMP JUMPDEST PUSH0 PUSH1 0x20 DUP3 ADD SWAP1 POP DUP2 DUP2 SUB PUSH0 DUP4 ADD MSTORE PUSH2 0x11D4 DUP2 PUSH2 0x119B JUMP JUMPDEST SWAP1 POP SWAP2 SWAP1 POP JUMP JUMPDEST PUSH32 0x50726F6475637420646F6573206E6F7420657869737400000000000000000000 PUSH0 DUP3 ADD MSTORE POP JUMP JUMPDEST PUSH0 PUSH2 0x120F PUSH1 0x16 DUP4 PUSH2 0xC6A JUMP JUMPDEST SWAP2 POP PUSH2 0x121A DUP3 PUSH2 0x11DB JUMP JUMPDEST PUSH1 0x20 DUP3 ADD SWAP1 POP SWAP2 SWAP1 POP JUMP JUMPDEST PUSH0 PUSH1 0x20 DUP3 ADD SWAP1 POP DUP2 DUP2 SUB PUSH0 DUP4 ADD MSTORE PUSH2 0x123C DUP2 PUSH2 0x1203 JUMP JUMPDEST SWAP1 POP SWAP2 SWAP1 POP JUMP JUMPDEST PUSH32 0x506C6561736520656E74657220612076616C6964206164647265737300000000 PUSH0 DUP3 ADD MSTORE POP JUMP JUMPDEST PUSH0 PUSH2 0x1277 PUSH1 0x1C DUP4 PUSH2 0xC6A JUMP JUMPDEST SWAP2 POP PUSH2 0x1282 DUP3 PUSH2 0x1243 JUMP JUMPDEST PUSH1 0x20 DUP3 ADD SWAP1 POP SWAP2 SWAP1 POP JUMP JUMPDEST PUSH0 PUSH1 0x20 DUP3 ADD SWAP1 POP DUP2 DUP2 SUB PUSH0 DUP4 ADD MSTORE PUSH2 0x12A4 DUP2 PUSH2 0x126B JUMP JUMPDEST SWAP1 POP SWAP2 SWAP1 POP JUMP JUMPDEST PUSH32 0x4E487B7100000000000000000000000000000000000000000000000000000000 PUSH0 MSTORE PUSH1 0x32 PUSH1 0x4 MSTORE PUSH1 0x24 PUSH0 REVERT JUMPDEST PUSH32 0x4F776E6572736869702063616E206F6E6C79206265207472616E736665727265 PUSH0 DUP3 ADD MSTORE PUSH32 0x642061667465722064656C697665727900000000000000000000000000000000 PUSH1 0x20 DUP3 ADD MSTORE POP JUMP JUMPDEST PUSH0 PUSH2 0x1332 PUSH1 0x30 DUP4 PUSH2 0xC6A JUMP JUMPDEST SWAP2 POP PUSH2 0x133D DUP3 PUSH2 0x12D8 JUMP JUMPDEST PUSH1 0x40 DUP3 ADD SWAP1 POP SWAP2 SWAP1 POP JUMP JUMPDEST PUSH0 PUSH1 0x20 DUP3 ADD SWAP1 POP DUP2 DUP2 SUB PUSH0 DUP4 ADD MSTORE PUSH2 0x135F DUP2 PUSH2 0x1326 JUMP JUMPDEST SWAP1 POP SWAP2 SWAP1 POP JUMP INVALID LOG2 PUSH5 0x6970667358 0x22 SLT KECCAK256 ADDRESS 0x4E LT 0xBA 0xC7 0xFB 0xE3 DUP13 0xBD SWAP2 0xDC 0x1E PUSH8 0x307972149496FE99 0xF 0xDF 0xE1 0xC1 0xBB PUSH32 0xEC07786CD64736F6C634300081A003300000000000000000000000000000000 "
				},
				"gasEstimates": {
					"creation": {
						"codeDepositCost": "1004000",
						"executionCost": "25304",
						"totalCost": "1029304"
					},
					"external": {
						"contractOwner()": "2571",
						"createProduct(uint256,string)": "infinite",
						"getProductDetails(uint256)": "infinite",
						"productOwners(uint256)": "2871",
						"products(uint256)": "infinite",
						"transferOwnership(uint256,address)": "37951",
						"updateProductStatus(uint256,uint8)": "31330"
					}
				},
				"methodIdentifiers": {
					"contractOwner()": "ce606ee0",
					"createProduct(uint256,string)": "0a01841d",
					"getProductDetails(uint256)": "6813b53b",
					"productOwners(uint256)": "ad95a8a2",
					"products(uint256)": "7acc0b20",
					"transferOwnership(uint256,address)": "29507f73",
					"updateProductStatus(uint256,uint8)": "920e2621"
				}
			},
			"storageLayout": {
				"storage": [
					{
						"astId": 7,
						"contract": "contracts/productTracker.sol:SimpleProductTracker",
						"label": "contractOwner",
						"offset": 0,
						"slot": "0",
						"type": "t_address"
					},
					{
						"astId": 28,
						"contract": "contracts/productTracker.sol:SimpleProductTracker",
						"label": "products",
						"offset": 0,
						"slot": "1",
						"type": "t_array(t_struct(Product)24_storage)dyn_storage"
					},
					{
						"astId": 32,
						"contract": "contracts/productTracker.sol:SimpleProductTracker",
						"label": "productOwners",
						"offset": 0,
						"slot": "2",
						"type": "t_mapping(t_uint256,t_address)"
					}
				],
				"types": {
					"t_address": {
						"encoding": "inplace",
						"label": "address",
						"numberOfBytes": "20"
					},
					"t_array(t_struct(Product)24_storage)dyn_storage": {
						"base": "t_struct(Product)24_storage",
						"encoding": "dynamic_array",
						"label": "struct SimpleProductTracker.Product[]",
						"numberOfBytes": "32"
					},
					"t_enum(ProductStatus)5": {
						"encoding": "inplace",
						"label": "enum SimpleProductTracker.ProductStatus",
						"numberOfBytes": "1"
					},
					"t_mapping(t_uint256,t_address)": {
						"encoding": "mapping",
						"key": "t_uint256",
						"label": "mapping(uint256 => address)",
						"numberOfBytes": "32",
						"value": "t_address"
					},
					"t_string_storage": {
						"encoding": "bytes",
						"label": "string",
						"numberOfBytes": "32"
					},
					"t_struct(Product)24_storage": {
						"encoding": "inplace",
						"label": "struct SimpleProductTracker.Product",
						"members": [
							{
								"astId": 18,
								"contract": "contracts/productTracker.sol:SimpleProductTracker",
								"label": "id",
								"offset": 0,
								"slot": "0",
								"type": "t_uint256"
							},
							{
								"astId": 20,
								"contract": "contracts/productTracker.sol:SimpleProductTracker",
								"label": "name",
								"offset": 0,
								"slot": "1",
								"type": "t_string_storage"
							},
							{
								"astId": 23,
								"contract": "contracts/productTracker.sol:SimpleProductTracker",
								"label": "status",
								"offset": 0,
								"slot": "2",
								"type": "t_enum(ProductStatus)5"
							}
						],
						"numberOfBytes": "96"
					},
					"t_uint256": {
						"encoding": "inplace",
						"label": "uint256",
						"numberOfBytes": "32"
					}
				}
			},
			"userdoc": {
				"kind": "user",
				"methods": {},
				"version": 1
			}
		}
	}
}